:020000040800F2
:1000000000040020D9020008DB020008DB0200081F
:10001000DB020008DB020008DB020008DB0200084C
:10002000DB020008DB020008DB0200087130000878
:10003000DB020008DB020008DB020008DB0200082C
:10004000DB020008DB020008DB020008DB0200081C
:10005000DB020008DB020008613B0008113B0008DE
:10006000C13A0008713A0008213A00080138000836
:10007000D1370008A1370008713700084137000860
:1000800011370008E1360008DB020008DB02000837
:10009000DB020008DB020008DB020008413900082F
:1000A000DB020008DB020008DB020008DB020008BC
:1000B000DB020008DB020008DB020008DB020008AC
:1000C000DB020008DB020008DB020008DB0200089C
:1000D000DB020008DB020008D1320008DB02000866
:1000E00031380008DB020008DB020008DB020008F0
:1000F000DB020008DB020008DB020008B136000862
:10010000DB020008DB02000881340008DB02000883
:10011000DB020008DB020008DB020008DB0200084B
:10012000813600085136000821360008F1350008F4
:10013000C1350008DB020008DB020008DB02000812
:10014000DB020008DB020008DB020008DB0200081B
:10015000913500086135000831350008DB020008E0
:10016000DB020008DB020008DB020008DB020008FB
:10017000DB020008DB020008DB020008DB020008EB
:10018000DB020008DB020008DB020008DB020008DB
:10019000DB020008DB020008DB020008DB020008CB
:1001A000DB020008DB020008DB020008DB020008BB
:1001B000DB020008DB020008DB020008DB020008AB
:1001C000DB020008DB020008DB020008DB0200089B
:1001D000DB020008DB020008DB020008DB0200088B
:1002000072B6274880F30888264880F30988264874
:100210004EF60851CEF200010860022080F31488E7
:10022000BFF36F8F03F004FD02F07AFF4FF05530FB
:100230001E491B4A91423CBF41F8040BFAE71C4996
:10024000184A91423CBF41F8040BFAE719491A4A8F
:100250001A4B9A423EBF51F8040B42F8040BF8E7E0
:1002600000201749174A91423CBF41F8040BFAE7B6
:1002700003F096FC03F0D4FC134C144DAC4203DAAB
:1002800054F8041B8847F9E702F0F2F8104C114DBE
:10029000AC4203DA54F8041B8847F9E703F0B8BC12
:1002A00000040020000800200000000800000020DA
:1002B0000004002060410008000800200008002021
:1002C00000080020980E0020E0010008E00100086E
:1002D000E0010008E001000892E700F000F8FEE706
:1002E0002DE9F04FC1F80CD0C3689D46BDE8F08FF2
:1002F000002383F311882846A047002002F0C8FE9F
:10030000FEE702F0EDFE00DFFEE70000844641EA72
:10031000000313F003036DD1403A41D351F8043B7D
:1003200040F8043B51F8043B40F8043B51F8043BCF
:1003300040F8043B51F8043B40F8043B51F8043BBF
:1003400040F8043B51F8043B40F8043B51F8043BAF
:1003500040F8043B51F8043B40F8043B51F8043B9F
:1003600040F8043B51F8043B40F8043B51F8043B8F
:1003700040F8043B51F8043B40F8043B51F8043B7F
:1003800040F8043B51F8043B40F8043B51F8043B6F
:1003900040F8043B51F8043B40F8043B403ABDD2DE
:1003A000303211D351F8043B40F8043B51F8043B80
:1003B00040F8043B51F8043B40F8043B51F8043B3F
:1003C00040F8043B103AEDD20C3205D351F8043B0F
:1003D00040F8043B043AF9D2043208D0D2071CBFDB
:1003E00011F8013B00F8013B01D30B880380604604
:1003F000704700BF082A13D38B078DD010F003037A
:100400008AD0C3F10403D21ADB071CBF11F8013BE9
:1004100000F8013B80D331F8023B20F8023B7BE738
:10042000043AD9D3013A11F8013B00F8013BF9D263
:100430000B7803704B7843708B78837060467047FD
:1004400090F800F06DE9024520F007016FF0000C14
:1004500010F0070491F820F040F049804FF00004BC
:100460006FF00700D1E9002391F840F000F1080097
:1004700082FA4CF2A4FA8CF283FA4CF3A2FA8CF3CF
:100480004BBBD1E9022382FA4CF200F10800A4FA36
:100490008CF283FA4CF3A2FA8CF3E3B9D1E904238A
:1004A00082FA4CF200F10800A4FA8CF283FA4CF3C1
:1004B000A2FA8CF37BB9D1E9062301F1200182FA7B
:1004C0004CF200F10800A4FA8CF283FA4CF3A2FA81
:1004D0008CF3002BC6D0002A04BF04301A4612BA8F
:1004E000B2FA82F2FDE8024500EBD2007047D1E992
:1004F000002304F00305C4F100004FEAC50514F021
:10050000040F91F840F00CFA05F562EA05021CBFF1
:1005100063EA050362464FF00004A9E7000000000B
:10052000F0B4264C0346012220689A40024218BFCC
:10053000002001D0F0BC7047214D024322602A6B9D
:10054000204842F4001204EBC304C4E901102A63FA
:100550000C202A6D1C4900FB03F042F400120E58D7
:100560002A652A6D326822F01F0208443260326820
:1005700012F00102FBD10C2404FB03133D24D97AB1
:100580005D7A5F684B099B00AC4003F1604301F169
:1005900060453C6003F56143012405F5614501F0C8
:1005A0001F01326004FA01F1A0222124746185F850
:1005B0000023C3F880111960BCE700BF700B002056
:1005C000003802407C080020CC3E000800000000FB
:1005D0000C490D4B4A6922F4704242F480524A6140
:1005E0009A6822F400429A60DA6842F40042DA60C3
:1005F0001A6842F400421A605A6822F400425A60B3
:10060000704700BF00380140003C0140000000007E
:10061000704700BF00000000000000000000000064
:10062000024AD3780133DBB2D3707047F80B002055
:1006300030B4202383F311880B4CD4E900354942B0
:10064000281A0840821A9A4207D3954205D362605D
:10065000002383F3118830BC70470020002383F30C
:10066000118830BC704700BF480B0020000000001C
:10067000024AD36843F0C003D3607047004400408F
:1006800008B5202080F31188FFF7A2FF002383F331
:10069000118880F31188034A0349C2E93E1383F3AA
:1006A000118808BDAC0800202106000800000000E9
:1006B000202383F311880D4B5B6813F4006302D190
:1006C00083F311887047EFF30983203B4FF080726A
:1006D000DA6183F30988064A116892698968926829
:1006E00091428CBF034A044A9A61704700ED00E0D2
:1006F000AC09002003030008060300080000000006
:10070000084A10B4D2E900344942201A08409842FD
:1007100004D3844202D310BC50607047002010BC48
:10072000704700BF480B00200000000000000000E0
:100730000E4A0F4B52685B6F816830B4D31AD0E910
:100740000445C2685B1A01324168C260E41802685D
:10075000836045F100058B4288BF43609342C0E946
:10076000044538BF036030BC704700BF001000E094
:10077000AC090020000000000000000000000000A4
:10078000014B5B6883607047001000E000000000D0
:10079000202383F3118890F82030072B0DD8DFE851
:1007A00003F0270C0C2308040C08426A93680133F9
:1007B0009360D0E9003213605A6010B400224FF009
:1007C000FF3481680C4B446280F820201B689A68D3
:1007D0008A42FBD25A680021C0E90032106058609A
:1007E00081F3118810BC7047436A00221A60E4E765
:1007F000002383F311887047AC090020000000003B
:1008000000228168064B80F820201B689A688A4283
:10081000FBD25A68C0E9003210605860704700BFD0
:10082000AC090020000000000000000000000000F3
:10083000F8B5164F57F8044FBC4220D005460026A5
:1008400004E00B2A1CD02468BC4218D0E3682B4378
:10085000E36015B123691D42F5D0D4E90103416B72
:1008600090F820200B430A2A4363EAD1426A1342DC
:10087000E9D04662FFF7C4FF2468BC42E6D1F8BD68
:10088000426A32EA0303DED1F3E700BF000800202A
:1008900038B504460068844209D000250368236007
:1008A0005C604562FFF7ACFF2068A042F6D138BD1E
:1008B000FEE700BF00000000000000000000000094
:1008C00011F00C0F00D1704772B6024B024ADA6287
:1008D000FEE700BFAC090020D43C00080000000087
:1008E00011F00C0F38B54FD10D4641680B78044616
:1008F000002B33D1456A2A68136823F01F03136065
:100900001368D807FCD46A7A206A6D683D23934047
:1009100002682B60136823F01F0313601368DB0762
:10092000FCD4457A4A6841683D23AB400B60002AFD
:100930002FD004232370204690472378042B28D0FF
:10094000202383F31188A06820B10023A3604362B1
:10095000FFF756FF002383F3118838BDEB0603D55C
:100960004B68002BF9D09847AD06F6D563685B68F5
:10097000002BF2D004222270204698472378042BC3
:10098000EBD10323237038BD72B6064B064ADA62F8
:10099000FEE702232370202383F31188A068002838
:1009A000D3D1D7E7AC090020D43C000800000000F8
:1009B0002DE9F04F02F00308C2F341154746C2F398
:1009C000C1064FEAD21C00244FF00F0B4FF0010A72
:1009D000AE4613E0D0F8009003EA09033B43072C2E
:1009E00003603ED8036A23EA020215430562490800
:1009F00035D0B6004FEA8E0EBF000134CB07F6D5D6
:100A000043680AFA04F223EA02034360826803257A
:100A1000630005FA03F322EA030232438260C568E9
:100A200004F0070225EA030545EA0E059200B8F135
:100A3000020FC5606FEA03030CFA02F50BFA02F22B
:100A4000C8D1072C13D8D0F8209029EA0202154308
:100A50000562026813403B4349080360C9D1BDE801
:100A6000F08F436A23EA020215434562BFE7D0F8DC
:100A7000249029EA020215434562EAE700000000DB
:100A8000C27A70B45309184E184D203302F01F0477
:100A9000012101FA04F4324446F82340002382F88D
:100AA0000033827A2B68914023EA010313F0FF0F91
:100AB0002B6009D10E4A116B21F400111163116DE5
:100AC00021F400111165126D13F47F4F09D1084B09
:100AD0001A6B22F480021A631A6D22F480021A65DE
:100AE0001B6D70BC704700BF00E100E0700B002080
:100AF000003802400000000000000000000000007C
:100B000038B5104C2378022B00D038BDD4E907301B
:100B10001A68002522F040021A601D605D60FFF730
:100B2000AFFF606AFFF7ACFF074B25621A6C656286
:100B300022F480421A641A6E22F480421A661B6EF6
:100B400038BD00BF7C0800200038024000000000D3
:100B500000207047000000000000000000000000BE
:100B6000144B996930B48D6884680022AC424262AB
:100B70000CD880F820201B689A689442FBD95A68E8
:100B800030BCC0E9003210605860704781F8202006
:100B90001A4612689468A542FBD354684C6001253C
:100BA0000A602160516080F8205030BC9861FFF7E6
:100BB00097BB00BFAC09002000000000000000004F
:100BC000084B99691A6810B481F820001068186001
:100BD0000124436082F8204010BC9A611046FFF760
:100BE0007FBB00BFAC090020000000000000000037
:100BF000F0B54B1C87B048D03D4C3E4FA3690593E0
:100C00002646022956F81C3F05463B4838BF0221BC
:100C1000B342426A049759D0A76AD21B89182ED3CF
:100C200098681B689A68091A914204D91B68891A46
:100C30009A688A42FAD35A68029201AF0193176008
:100C40005F6003919A68511A4FF0FF3299606262B7
:100C50002846FFF7B5FF049B6BB1E369BB421BD08D
:100C6000DDE901321360019BB3425A6003D09A68F8
:100C700003990A449A60A369586A07B0F0BD9A685C
:100C80009142D1D20F444763CEE7194CFFF798FF4A
:100C9000A369586A07B0F0BD019BE3610022B3422B
:100CA0005E60049220D09A68039D1348A16A2A448A
:100CB0009A60436A581A8242DDD9CB1A1344012B39
:100CC00098BF821C0C4B0A445A63D4E78B1801AFBF
:100CD000A262CDE90166C4E907770391002243636C
:100CE00002230261C360B3E7034BDA60C3E700BFCE
:100CF000AC09002091070008000C00400000000033
:100D000061B1084A10B4926944680346C2E90034EC
:100D10000420226010BC5A60FFF76ABF4FF0FF301A
:100D2000704700BFAC090020000000000000000078
:100D3000F8B504460F461646202383F3118803E0D6
:100D4000FFF7DEFF002818DBA56831462046002D9E
:100D5000F6D06269A368511C013B6161A360177002
:100D6000D4E904329A4224BFE3686361E36903B1C2
:100D70009847002080F31188F8BD85F31188F8BDED
:100D80003030FFF7D5BF00BF0000000000000000BA
:100D900030304FF0FF32FFF7CBBF00BF0000000044
:100DA00070B5202305460E4683F3118803E0FFF754
:100DB000A7FF00281ADBAC6831462846002CF6D085
:100DC000A969AB6828694A1C013B8242AB60AA61F1
:100DD00028BFEB680C7828BFAB61EB690BB12846E4
:100DE0009847002383F31188204670BD84F311884F
:100DF00070BD00BF00000000000000000000000007
:100E00000C30FFF7CDBF00BF000000000000000065
:100E10000C304FF0FF31FFF7C3BF00BF00000000F0
:100E200008B50146202383F311880820FFF7E0FE70
:100E3000002383F3118808BD0000000000000000BB
:100E400008B52025064C2E46268340F6C410FFF731
:100E5000E7FF658340F6C410FFF7E2FFF4E700BF49
:100E60000000024000000000000000000000000040
:100E7000F8B50646202383F31188134B13481D6AE7
:100E800087695C6A032018702D682468EA60D3E9DA
:100E90000AC24CF4806C42F480626E60C5F800C0F7
:100EA000E160666022602A6842F001022A602268DE
:100EB00042F00102226043F8087F7B62FFF780FE68
:100EC000002383F31188F8BD7C080020AC090020C2
:100ED00070B52023D0E90015068983F31188174CDB
:100EE0006268D2E90220012383409BB2538300232E
:100EF00083F31188E1B18DB12A463046FFF7B8FF80
:100F0000202383F311886268D2E9022101238B40F8
:100F10009BB21383002080F3118870BD3046084ACD
:100F2000FFF7A6FF32462946054802F083FEE7E7B1
:100F300003492A463046FFF79BFFE1E77C08002083
:100F4000240C002000000000000000000000000051
:100F50002DE9F04F89B04FF0000882460F4601920C
:100F600046460DF10F05B7F5005FB9464FF00A0B85
:100F700028BF4FF40059012405A8CDE90565ADF857
:100F80001C40FFF7A5FF0BF1FF3C034648B99DF855
:100F90000F2012090F2A08D00FFA8CFBBBF1FF3F7C
:100FA000EAD1002009B0BDE8F08FBBF1000FF8D006
:100FB0000AEB080205A80593ADF81C900692FFF70E
:100FC00087FF0028EDD10E4B019A1B7813430BD0FD
:100FD000A7EB0907C844BFB20FFA88F8002FC2D1A7
:100FE000012009B0BDE8F08F04AA059305A80223EB
:100FF0000692ADF81C30FFF76BFF0028E8D0D0E771
:10100000210C002000000000000000000000000093
:101010002DE9F043CF2885B0074633D000F13B03DC
:10102000DBB2012B2ED90DF1030501AE0B244FF0DD
:1010300000094FF001083046CDE90195ADF80C806C
:10104000FFF746FF631E58BB9DF80320BA4202D04B
:1010500013F0FF04EFD10B244FF0000801273046B6
:10106000CDE90185ADF80C70FFF732FF631EB8B90A
:101070009DF8032012B113F0FF04F0D1012005B058
:10108000BDE8F08301AE00220DF1030501233046D7
:10109000CDE90125ADF80C30FFF71AFF0028C5D0C7
:1010A000002005B0BDE8F083000000000000000053
:1010B000F0B587B0A0F1C3049DF830508DF8000062
:1010C0000C2C34D8DFE804F0764D070736365B6524
:1010D000333333336D0000238DF80130ADF8023027
:1010E00005263F4B1B78002B37D1ADF102036D462F
:1010F00099193C4C2A46771E7F2301E012F8010F14
:1011000080EA43039142E35CF8D106AA3A445B00CB
:1011100002F8183C002303A80395ADF8146004936B
:10112000FFF7D6FEB0FA80F0400907B0F0BD00200E
:1011300007B0F0BD1D0A8DF80630294B8DF805501B
:101140001B780C0C002249BA8DF80140ADF8021052
:101150008DF804200826002BC7D0013EF6B26D465C
:10116000D8E7C1F307230DB163F07F038DF8013099
:1011700000238DF802108DF803300526B1E712BA6E
:101180000C0C4BBA01928DF80140ADF802300926E3
:10119000A7E70B0C49BA8DF80130ADF8021005260F
:1011A0009FE7FF224FF6FF738DF80120ADF8023064
:1011B000052696E7C1F307230DB163F07F038DF891
:1011C0000130150E140C130A8DF802108DF806204C
:1011D0008DF803508DF804408DF80530082680E71F
:1011E000210C0020A43F00080000000000000000C7
:1011F0002DE9F0474FF0000984B080468A46164634
:101200004F460A2513E00A20FFF70AFE00231A467C
:1012100019460097CF20FFF74BFFCF20FFF7F8FECE
:10122000013D0A20FFF7FCFD15F0FF0526D0012E39
:101230000CBF022333464FF000024FF0C800009766
:10124000414604BFB1461E46FFF732FF012804465F
:10125000D9D1C820FFF7DCFE01280446D3D10022F3
:10126000314603A8B9F1000F0CD0FFF771FE9DF8CD
:101270000C308AF800300446012CC4D1204604B05A
:10128000BDE8F0874A465046FFF762FE0446F3E7A2
:10129000F82A2DE9F041164605468846144688BFCF
:1012A0008F180ED9391B2846F822FFF7A1FFF83C0A
:1012B0000128A6EB040305F1F8050DD1F82CF1D8AF
:1012C0009844A2B241462846FFF792FF012808BF82
:1012D000002001D1BDE8F0816FF00500BDE8F0818C
:1012E0002DE9F047FF2884B00546894695BFC426FE
:1012F000CA26012700274FF00A0A4FF0000815E020
:101300000A20FFF78DFD00231A461946CDF800800C
:10131000CF20FFF7CDFECF20FFF77AFE0A20FFF7A0
:101320007FFD0AF1FF3313F0FF0A1AD00097042360
:10133000002229463046FFF7BBFE01280446DFD1D4
:101340003046FFF765FE01280446D9D13A4604210C
:1013500003A8FFF7FDFD01280446D1D1039BC9F87E
:101360000030204604B0BDE8F08700BF0000000058
:1013700008B5FFF7B5FF012814BF6FF00500002086
:1013800008BD00BF000000000000000000000000D9
:1013900030B51F4D2C6883B014B1204603B030BD6A
:1013A00029464FF48050FFF7E3FF10B100232B6074
:1013B000F3E701A941F2F430FFF7DAFF0028F5D195
:1013C0002B68144A934215D0134A934209D0134A0A
:1013D000934215D02C6824F4702444F4A0242C608B
:1013E000DBE7019B032BF5D0042B0CBF0C4B0D4B03
:1013F0002B60EFE7019B012BECD00B4B2B60E9E757
:1014000029464FF46C10FFF7B3FF0028E2D0CDE778
:10141000500B0020A0021000B0021000F0001000DD
:10142000B1021000B2021000A10210000000000082
:101430002DE9F04F8BB0DFF83C9102918346904646
:101440000A2713E00A20FFF7EBFC002300931A465B
:101450001946CF20FFF72CFECF20FFF7D9FD013F23
:101460000A20FFF7DDFC17F0FF077CD0B8F1010F71
:1014700008BF4FF002080025434600952A4659460A
:10148000C720FFF715FE01280646DBD1C720FFF76E
:10149000BFFD01280646D5D1DDF808A0ADF81850EB
:1014A0002C460390464626E0B6F5005F94BFF32233
:1014B000F1220DF1170307930023089307A84FF0BB
:1014C00001038DF81720ADF82430FFF701FD024627
:1014D0000AEB040107A84ABBCDE90712ADF8245076
:1014E000FFF7F6FC10BB99F800209AB1731B2C444F
:1014F0009EB224B2E6B1B6F5005F354628BF4FF480
:101500000055ADB2002CCFD0B6F5005F94BFF322EA
:10151000F222CEE706A94FF0020307A80892ADF821
:1015200024300791FFF7D4FC0028DFD0002689E79C
:1015300099F80030039ED3B103231C460022ADF876
:10154000243007A806ABCDE90723FFF7C1FC00282C
:10155000ECD10AAB234413F8112C002AE6D113F87E
:10156000123CC32BE2D130460BB0BDE8F08F022312
:101570001C46E3E7210C00200000000000000000F2
:10158000F82A2DE9F041164605468846144688BFDC
:101590008F180ED9391B2846F822FFF749FFF83C6F
:1015A0000128A6EB040305F1F8050DD1F82CF1D8BC
:1015B0009844A2B241462846FFF73AFF012808BFE7
:1015C000002001D1BDE8F0816FF00500BDE8F08199
:1015D0002DE9F047302882B00646884695BFC327DC
:1015E000C9274FF001094FF000090A254FF0000A02
:1015F00014E00A20FFF714FC00231A461946CDF820
:1016000000A0CF20FFF754FDCF20FFF701FD013DE3
:101610000A20FFF705FC15F0FF0510D0CDF800906B
:101620000423424631463846FFF742FD012804466E
:10163000DFD13846FFF7ECFC01280446D9D120461B
:1016400002B0BDE8F08700BF00000000000000000D
:1016500008B5FFF7BDFF012814BF6FF0050000209B
:1016600008BD00BF000000000000000000000000F6
:10167000FFF7EEBF000000000000000000000000C7
:1016800030B540F4807483B0002521464FF4A55056
:10169000FFF7EEFF01A94FF4A5500195FFF768FE93
:1016A0000028F2D1019BA342EFD103B030BD00BFAF
:1016B000204B5A781AB15A78013AD2B25A705A78F5
:1016C00022B91B7803F0FF0013B970470020704760
:1016D00000B583B002E0019BD90708D501A910200D
:1016E000FFF746FE0028F6D003B05DF804FB01A921
:1016F0000120FFF73DFE0028F6D101998A070FD49B
:1017000001A90B20FFF734FE0028EDD10199CB078A
:10171000EAD521F001010B200191FFF799FFE3E7E2
:1017200021F0020101200191FFF792FF0028E7D08C
:10173000DAE700BFF80B0020000000000000000006
:101740002DE9F04188B00446082301208DF81140AE
:101750008DF81000ADF81230BDF81230814D12FA3C
:1017600083F39BB2ADF81230AB7816460F4663B9DF
:101770006B7803F0FF02002B64D12B78002B40F034
:10178000A0806B780133DBB26B7000230693ADF859
:101790000E300593BDF81210059A42F00102059231
:1017A000059840EA04240594059B43EA0143059308
:1017B000059941F28C00FFF74BFF034648B16A7868
:1017C0001AB16A78013AD2B26A70184608B0BDE818
:1017D000F0810590059B43F002030593059941F2C2
:1017E0007800FFF735FF03460028E8D10690ADF8F2
:1017F0000E00BDF80E309BB2B3F57A7F10D32DE00A
:10180000059C14F0020422D0BDF80E3001339BB2C7
:10181000ADF80E30BDF80E309BB2B3F57A7F1DD215
:1018200005A941F27800FFF7A3FDB8B9BDF80E3065
:101830009BB2B3F5FA7FE3D30A20BDF80E30FFF771
:10184000EFFADDE76B780344DBB26B709DE7464847
:1018500006A9FFF78DFD0346002869D1069B002BE2
:101860007BD0069B0793BDF812309BB2ADF81230C7
:101870000798082204A9FFF783FE034600289ED19B
:10188000079B08330793079839463246FFF778FEDF
:101890000346002893D1079B1E440796069B9B0096
:1018A0000593059B43F002030593059941F26C00F3
:1018B000FFF7CEFE0346002881D1FFF7F9FE03466D
:1018C00083E706A90B20CDE90622FFF751FD034669
:1018D00000287FF47AAF0699CB0708D441F00101C4
:1018E0000B20FFF7B5FE034600287FF46EAF06A974
:1018F0000120FFF73DFD034600287FF466AF0699FF
:10190000880721D54FF0050807A90F20FFF730FD04
:1019100003461420002B7FF458AF079A520709D4CE
:10192000FFF77EFAB8F10108EED16FF003034CE740
:10193000069444E700931A461946CF20FFF7B8FBF8
:10194000CF20FFF765FB1CE741F002010120FFF704
:101950007FFE03460028D5D037E7FFF7A9FE6FF0DA
:10196000020332E7F80B002000041500000000001D
:1019700010B50A4C237882B06BB90422FF230DEB1B
:10198000020110208DF80430FFF7DAFE08B90123B8
:10199000237002B010BD6FF00D00FAE7220C00209A
:1019A00000B5042283B003460DEB020112208DF82E
:1019B0000430FFF7C5FE03B05DF804FB0000000033
:1019C00000B50B4B83B000229A70FEF759FE01A9B7
:1019D00041F27000FFF7CCFC38B9019941F2700078
:1019E00041F002010191FFF733FE03B05DF804FB03
:1019F000F80B0020000000000000000000000000C4
:101A0000F8B51E46E8B1E1B1DAB1104FBB689A42B1
:101A100019D87B689842044615D37B68D7F808C06C
:101A2000144463449C420ED8FFF732FC68B97B68CB
:101A3000BA6813449C4200D03EB1BDE8F840FFF7BD
:101A4000BFBF002EF9D16FF00B00F8BDF80B0020DE
:101A500030B52C289BB00446154634D01B283CD00A
:101A6000062843D00E282CD0322848D02F284FD01B
:101A7000342865D011287DD0132800F092800428E6
:101A800000F0A08065281ED0092800F0AD802A282B
:101A900067D0202815D101A9002308222846FFF786
:101AA000AFFF70B9BDF80820019905F108000123C6
:101AB000FFF7A6FF28B9514B1B6813B101A92046B7
:101AC00098471BB030BD284601A900230422FFF728
:101AD00097FF0028EFD01BB030BD104601A90023AE
:101AE0000822FFF78DFF0028EBD1E4E7104601A99B
:101AF00001233022FFF784FF0028E2D1DBE7104604
:101B000001A900231422FFF77BFF0028D9D1D2E7D7
:101B100001AC2346002203F8012B1AA98B42FAD10B
:101B20002846002364222146FFF76AFF0028C8D117
:101B3000324B1B68002BC4D021462F209847C0E7AA
:101B40001046042200230DEB0201FFF759FF002885
:101B5000B7D12A4B1B68002BB3D0014620469847CB
:101B6000AFE7104601A901230422FFF749FF00282F
:101B7000A7D1A0E7224A002301AC137028462146D2
:101B80000422FFF73DFF00289BD11C4B1D4A1B6818
:101B90009DF804101170002B93D021461120984716
:101BA0008FE701AC1046214600232C22FFF728FFC7
:101BB000002886D1114B1B68002B82D021461320B0
:101BC00098477EE7104601A900230422FFF718FF7B
:101BD00000287FF476AF094B1B68002B3FF471AFF0
:101BE00001A9042098476CE7104601A9012364224B
:101BF000FFF706FF00287FF464AF5CE7F40B0020DA
:101C0000220C0020200C002000000000000000003A
:101C10000FB42DE9F04F87B010AB53F8044B02938B
:101C2000224612F8011B002900F03E82C04D9A4660
:101C30004FF0000B0CE02B68BD48DB680BF1010B8B
:101C400014469847224612F8011B002900F0BE8076
:101C50002529F0D163782D2B04BFA21C0120137815
:101C600018BF00202B2B03BF53784FF0010E724496
:101C70004FF0000E302B05BF1F465378202701324E
:101C80002A2B40F0AC805AF8041B5378941C2E2B5E
:101C900000F03081002203F0DF064C2E00F0B2800D
:101CA000A3F1440CBCF1340F00F29B81DFE81CF07F
:101CB00061019901990199019901610199019901C4
:101CC0009901990199019D013500990199019901A5
:101CD000990194009901990135009901990199019F
:101CE000990199019901990199019901990150016D
:101CF0006101990199019901990161019901990184
:101D00009901990199019D013500990199012D01D0
:101D1000990194009901990135004FF0100E5AF87D
:101D2000046B0DF1170300E06346B046B6FBFEF608
:101D30000EFB168909F13002392AC8BF09F13702B2
:101D4000D2B2F04503F1FF3C03F8012CECD20DF1C7
:101D50000C080DF11706A6EB0C06C6460DF1170C84
:101D600001E013F8012B0EF8012B6345F9D1891B13
:101D7000013E21EAE17920B90029C9F1000900F307
:101D80004881002E0FDB731C434401941C462A68D3
:101D900018F8011BD26828469047A045F7D10BF1EF
:101DA000010B019CB344B9F1000F3FF44BAF4E4619
:101DB0002B683946DB6828469847013EF8D1224611
:101DC000CB4412F8011B00297FF442AF584607B0FC
:101DD000BDE8F04F04B070474FF00A0E9FE7541C67
:101DE000002BF3D00021A3F13002D2B2092A01EB7B
:101DF00081063FF64CAF14F8013B02EB4601002B85
:101E0000F1D1E3E714F8013B002BDFD0A3F1440646
:101E1000342E00F2E6800FF2080C5CF826F000BFCA
:101E2000731F0008E31F0008E31F0008E31F0008FA
:101E3000E31F0008731F0008E31F0008E31F0008EA
:101E4000E31F0008E31F0008E31F0008EB1F000862
:101E50001B1D0008E31F0008E31F0008E31F000824
:101E6000E31F0008D91D0008E31F0008E31F000856
:101E70001B1D0008E31F0008E31F0008E31F000804
:101E8000E31F0008E31F0008E31F0008E31F00082A
:101E9000E31F0008E31F0008E31F0008511F0008AC
:101EA000731F0008E31F0008E31F0008E31F00087A
:101EB000E31F0008731F0008E31F0008E31F00086A
:101EC000E31F0008E31F0008E31F0008EB1F0008E2
:101ED0001B1D0008E31F0008E31F00080B1F00087C
:101EE000E31F0008D91D0008E31F0008E31F0008D6
:101EF0001B1D00082378002B3FF468AF2A2B77D1F5
:101F000063785AF8042B0234C5E65AF8048BB8F10A
:101F1000000F00F0BF8098F80030002A40F0AD803C
:101F2000002B00F0AE8047F6FE72464604E000BF8C
:101F300000080020D34205D416F8017FA8EB060361
:101F4000002FF7D1A6EB0806891B2027013E10E7DA
:101F50005AF8043B8DF80C300139202721EAE17949
:101F600018B90029C9F1000972DC00260DF10C082E
:101F700009E75AF804CBBCF1000F5FDBBEF1000F9C
:101F800000F08E802B238DF80C300DF10D060DF135
:101F90000C0806F10B0301931A46474BA3FB0CE315
:101FA000DB0803EB83099E46ACEB49033033E14683
:101FB000DBB2B9F1090F02F8013DF446EDDC9E46B3
:101FC000019BA3EB020CB444734601E012F8013FFD
:101FD00006F8013B6645F9D1A6EB0806891B013ED0
:101FE000C7E68DF80C300139B8E74FF0080E96E6D9
:101FF00001340022A3F13006F6B2092E02EB820C66
:102000003FF649AE14F8013B06EB4C02002BF1D130
:10201000DCE6CDF8049098F800102D2921D02B682B
:102020003946DB682846984719F10109F7D1019B29
:10203000002EABEB030BBFF6A6AE03E62D23CCF1CF
:10204000000C8DF80C300DF10D060DF10C08A0E719
:102050009DF80C10CDF804902D290DF10C080646C2
:10206000DDD1302FDBD12A681448D268904708F1BF
:1020700001080BF1010B013ED1E713B1013A7FF5E5
:1020800054AF21EAE17918B90029C9F100090DDC42
:10209000202788E6DFF82880002A3FF444AFEDE7E8
:1020A0000DF10C08464674E78B468FE6CDF8049098
:1020B00020274FF0FF36AEE7CDCCCCCC0008002077
:1020C000E03C0008000000000000000000000000EC
:1020D000F0B52C289FB00C462ED01ED8112834D035
:1020E000132827D101F10A063046FEF7A9F9544F0B
:1020F0000546397853483246FFF78AFD524BADB258
:102100001B78042DDBB234D03878984229D2FFF7FF
:1021100047FC3B7801333B700CE032280AD14B4836
:10212000FFF776FDE3780093A3786278217848483A
:10213000FFF76EFD1FB0F0BD0B78002BFAD14548BC
:10214000FFF766FDFFF714FCF4E73D4C0B78002029
:10215000207053B1FFF724FC2378013323701FB0A4
:10216000F0BD3D493D48FFF753FDFFF701FC1FB0AF
:10217000F0BDA27A442AC7D1E27A492AC4D1227B8F
:10218000412AC1D1627B532ABED133493448FFF77B
:102190003FFD344869220146002301E011F8012F78
:1021A00001339BB2002AF9D1402B33D02A49442273
:1021B0000DF152030DF1570401E011F8012F03F85E
:1021C000012BA342F9D10022FF210223ADF85010C8
:1021D0008DF857208DF873208DF84D30692102E07D
:1021E00010F8011F1A46531C9BB20029F8D13F2A50
:1021F000A0D81D4A03A91344642001E012F8010F7E
:1022000001F8010B9342F9D103A96C222820FFF7B2
:1022100097FA8FE71449642301F13F05A3F13A02CD
:10222000062AA3F1470485D9192C83D9662B81D8B6
:102230008D42BBD011F8013F2F2BEFD87AE700BFBA
:10224000230C0020E83C0008200C0020483D00083A
:102250005C3D0008303D0008F83C0008183D0008CF
:10226000003D00080D3D00080C3D00080000000086
:102270002DE9F04F85B0CDE90232C7694FF0200952
:1022800089F31188A2B3DDF80CB004460E464FF076
:10229000000AA2689345D4E904208CBFA5685D4676
:1022A000A2EB0008A84544D829D2A5EB0803424672
:1022B00031460193FEF72AF806EB0801DDF80480A9
:1022C000E0684246FEF722F8A268E1684346CB1870
:1022D000521B6361A2600FB12046B8478AF3118890
:1022E000ABEB050B2E4489F31188BBF1000FD0D165
:1022F0000398002383F3118805B0BDE8F08F2A46C8
:102300003146FEF703F8E2686261A268521BA260E0
:10231000002DE0D102992046FEF7F2FC0028B8D04B
:10232000039BA3EB0B00002383F3118805B0BDE8EA
:10233000F08F2A463146FDF7E9FF62692A4462615F
:10234000E3E700BF00000000000000000000000004
:102350003030FFF78DBF00BF00000000000000001C
:1023600030304FF0FF33FFF783BF00BF00000000A5
:102370002DE9F04F85B0CDE90232C7694FF0200951
:1023800089F31188002A34D0DDF80CB004460E46DB
:102390004FF0000AA268A169934522698CBFA56825
:1023A0005D46A2EB0108A84544D829D2A5EB080355
:1023B000424630460193FDF7A9FF06EB0800DDF821
:1023C0000480E1684246FDF7A1FFA268E168434648
:1023D000CB18521BA361A2600FB12046B8478AF305
:1023E0001188ABEB050B2E4489F31188BBF1000F6C
:1023F000D0D10398002383F3118805B0BDE8F08F96
:102400002A463046FDF782FFE268A261A268521BAD
:10241000A260002DE0D102992046FEF771FC002851
:10242000B8D0039BA3EB0B00002383F3118805B006
:10243000BDE8F08F2A463046FDF768FFA2692A44BE
:10244000A261E3E7000000000000000000000000BF
:102450000C30FFF78DBF00BF00000000000000003F
:102460000C304FF0FF33FFF783BF00BF00000000C8
:10247000214B22491A6962F087022DE980481A61CE
:102480001A6902F087021A611A691A6A62F08052A8
:102490001A621A6A02F080521A624FF0FF32186A0A
:1024A000586A5A6200205A6A58625A6A1A6C42F094
:1024B00080521A641A6E42F080521A661A6E0A68C6
:1024C00042F480720A601A6F02F44072B2F5007F23
:1024D00099B003D04FF480321A671867074C084848
:1024E0006168084B084D21F40071002261600146CB
:1024F000026003F1C0000BE00038024000700040B1
:10250000700B0020D83E00081060024053F80C5CAD
:102510002A600C3383424A6001F10801F6D1C64CAF
:10252000C648C74B4FF0FF31A1606022E1604025F3
:1025300081608024C1604FF480704FF4007183F893
:102540000623C3F880511D6083F80723C3F8804138
:102550001C6083F808234FF48064C3F8800118607E
:1025600083F80923C3F8801119604FF4000183F840
:102570000A23C3F880411C6083F81723C3F8801135
:102580001960B04983F828230C18C3F8840100228D
:102590005860C1E90011C1E9022210318C42F8D122
:1025A000DFF8F882A84FA94DA94CAA48AA4BC8F851
:1025B00014204146102641F8047BC8F83860C8F85A
:1025C0004C4008F1740608F15404C8F8740008F18E
:1025D0006400C8E90844C8E91100DFF8C4E2DFF884
:1025E000C4C2C8F8406008F10C07C8F8041008F12C
:1025F00030060121C8F81840C8F81C0005F10C0489
:10260000C8F83C0095486A61C8E90A28C8E9037718
:10261000C8E90C66C5E90122C5E90822C5E90344F9
:10262000C5F81CE0C5F828C088F808102970C8F85B
:102630005080E862186C8A4CDFF86CE2646040F00D
:1026400008001864186EA26040F0080018661B6E3F
:10265000DEF80870834B246147F00807CEF8087055
:10266000814E7748DFF844C242F20F779F624FF005
:10267000FF37DF6264619A6167625A63A262DA605F
:1026800072605A60B26059611960802380F83233F9
:102690004FF4802104F11C03C0F88411E361416010
:1026A0002362724B7249316006F10C0E7148724917
:1026B000CCF8000003F11009CCF804100020002130
:1026C0002460C6F80CE0C6F810E0C3F8109003F1DF
:1026D0003C0E03F14009CDE91201C3E90033142196
:1026E000C3E90FE97261CDE90F2204260E9703F1C9
:1026F000240C03F128071C20626711929A605A612A
:10270000DA6299615D4AC3F824C003F144019F6213
:1027100018635964DE615E631A629A630EA8FEF75D
:102720002FF80EA8FEF704F8013EF7D1544B60696C
:102730000E9961678027012203F12C01DFF870E117
:10274000A76303F1280CE766C4E91966C4E91040E1
:1027500084F8516084F85220C4F848E020270361CF
:10276000C4E90533C4E916C184F85020E664216643
:1027700087F3118862B6434B4349D8684FF6FF0C84
:1027800000EA0C000CF1604C0143ACF60F3CD96040
:10279000DCF80C103D4841F08071CCF80C10016859
:1027A0004FF0100C1143016083F81FC083F82270B2
:1027B00086F3118862B687F31188354B6169C3F8D7
:1027C0009820C3E9326283F8B22003F16C02C3F8A7
:1027D0009C203048D866022203F19000A3F8B02074
:1027E000DFF8D0C02C4AC3F8A410C3F88C201E67B1
:1027F00003F1BC02C3F8C460C3F8A040C3F8AC3016
:10280000C3F8A8C0086103F1B801C3E92E12C3F8E8
:10281000C0206061FEF7A4F986F3118887F3118860
:1028200098F80830012B52D10B4B054A196C41F432
:1028300000311964196E3FE00060024000640240FC
:1028400000E100E0AC080020384100087C080020CE
:1028500071060008004400400038024046000100B4
:10286000AC090020000C0040540B0020240A00207A
:1028700031060008980E00200080002001070008A3
:10288000DC09002000ED00E00003FA05001000E084
:10289000700A0020B1080008F102000800080020BA
:1028A0000038004016000100002004E0480B002022
:1028B0008C3F0008783D000841F4003119661B6E1A
:1028C000C021402382F82613C2F884315360D8F81F
:1028D0007420AE4B9A4200F0F482AD498A420CBF9C
:1028E0004FF459714FF4D97140234FF0010A42F26D
:1028F0002C10002791604FF002091361FF21C2F8EC
:1029000014A0D06017601068526888F8781088F8B2
:10291000089087F311889F48DFF8B882FFF778F9AD
:102920009D48FFF775F93A4649469C48FEF740F83E
:1029300040463A464946FEF73BF83A464FF40051C6
:10294000FEF736F83A464FF48041FEF731F852462A
:1029500049469248FEF72CF8404652464946FEF753
:1029600027F852464FF40051FEF722F852464FF432
:102970008041FEF71DF84FF4804B20224FF40041B8
:10298000FEF716F8A8F81A906420A8F81AB0FEF717
:1029900047FAA8F818906420FEF742FAA8F818B091
:1029A0006420FEF73DFA4FF0200B8BF311887C4A30
:1029B0006169A2F820917B4BDFF81C92C2F8FC30D1
:1029C00002F58070DFF814C2C2F8E07002F1DC0E8C
:1029D0008023C2E94519C2F80831C2F83C31C2E986
:1029E0004D7702F5967382F822A1C2F81041C2F821
:1029F0001C21C2F80CE1C2F8DCC0086102F5947138
:102A0000C2E94A13C2F830316061FEF7A9F887F3D2
:102A10001188654C65480D97CDE90977CDE90B77AD
:102A20000894FFF7F5F8624A624B17705B481C6028
:102A300040F29A220421FDF7BBFF584840F29A2247
:102A40000821FDF7B5FF404640F29A224FF480611D
:102A5000FDF7AEFF8BF311882A78574B6B60524518
:102A600000F062824C21D5E90A0220F4F04022F401
:102A7000F042C5E90A021A78A86A002A00F0198211
:102A8000EA6A40F4847042F48472C5E90A02EA6991
:102A90005B8A106843F0070341F4417120F0400065
:102AA0001060116053601368022143F0400313600B
:102AB0000027297087F31188FEF76AFC3F4C014616
:102AC0003F48FFF7A5F80EA94EF624000E97277091
:102AD000FEF706FC002800F05A822378002B00F055
:102AE000F38106AF39464FF48050FEF7F9FB01E061
:102AF000FEF796F90EA941F21400FEF7F1FB0E9BCA
:102B0000002B4FF00A00F3DA2E480EA9FEF7E8FB7F
:102B10000E9BDA071CD40A20FEF782F90EA94FF0AB
:102B20000C10FEF7DDFBDFF8B8800E9B44F6206446
:102B30000AE0FEF775F90EA94FF00C10FEF7D0FB76
:102B4000013C0E9B00F02F8243454FF00A00F0D16C
:102B50001D4941F28C00FEF78BFDFEF719FCC0F316
:102B60000B03B3F5687FC0F00E820220FEF788FDEC
:102B700016494FF00C10FEF77BFD154B41F28C020D
:102B8000039244F62064049336E000BF0010014035
:102B900000140140803D00088C3D00080008024000
:102BA000500D0020F1020008D1200008AC3D0008C3
:102BB000220C0020F40B002024410008210C0020EE
:102BC000C43D0008BC07020054135413612F52EF98
:102BD0003626530200040240A43D0008410E0008BE
:102BE0009ED0AD10FEF71CF903980EA9FEF778FBF6
:102BF000013C0E9E00F0D781049BB3424FF01400BD
:102C0000F0D1049AB84B9A4200F0DF8100230EA95C
:102C100041F208400E93FEF7ABFB0646002840F059
:102C2000C4810E9941F2084041F480710E91FEF783
:102C30000FFD0646002840F0B8810EA94FF4D05091
:102C4000FEF796FB0646002840F0AF810E994FF440
:102C5000D05041F480310E91FEF7FAFC0646002870
:102C600040F0A381A14C234604F1280203F8016B34
:102C70009342FBD1202080F31188FDF7A9FC86F355
:102C8000118880F311889A4B9A4AC2E93E3686F33E
:102C90001188CDE90566984B984AE3617E60E26051
:102CA0000EAB002203F8012B18A98B42FAD19448ED
:102CB00005A9FEF75DFB0646002840F0C88105988F
:102CC000002800F0BB8140F4403008223946FEF76E
:102CD000DFFA0646002840F0BA81BDF81C000590D6
:102CE000002800F0AB8140F4403028220EA9FEF706
:102CF000CFFA0646002840F0AA819DF841009DF8D1
:102D00003FE09DF83E309DF83D209DF840C09DF885
:102D10003C1000F00F0040EA0E2003F00F054FEAD0
:102D2000021E4FEA0C1C45EA01255FFA8EFE5FFA8F
:102D30008CFC55EA0E0540EA0C0000F08581002865
:102D400000F0828141F2543C604500F2748141F20E
:102D50005330854298BF6FF00C06BDF858000090C4
:102D60006848FEF755FF0DF14E020DF1420166482D
:102D7000FEF74EFF9DF841309DF840209DF83F1032
:102D80006248FEF745FF0522132161480423FEF740
:102D90003FFF604A60496148FEF73AFF002E40F06D
:102DA0000F815F485F4EFEF733FFFEF7E1FDE378EA
:102DB000002B79D0E378013BDBB2E3704FF400489D
:102DC00005A941F27000FEF7D3FA0028F8D1059961
:102DD000CB07F5D521F00101A6F81A8041F2700069
:102DE0000591FEF735FC03460028E9D1059D012237
:102DF000C5F38B05A270002DE2D00EA941F284002C
:102E00000E93FEF7B5FA002840F009810E98606035
:102E100004223946A560FEF73BFABDF81A309BB292
:102E2000ADF81A30002840F0FA80BDF81A309BB295
:102E30009D4206D0BDF81A309BB2ED1A042D00F366
:102E4000EE809DF81830012B00F0E0809DF81830DE
:102E5000022B00F0D2809DF81830042B00F0C480C3
:102E60009DF81830062B00F0B6809DF81830072B1F
:102E700000F0D8809DF81830052BA1D1636A4BB1C2
:102E8000BDF81A100E9A636A9DF81900083989B2C4
:102E900008329847A378002B89D0FEF791FD0028CF
:102EA0008ED1E378002B85D14FF47A70FDF7B8FF0F
:102EB0007DE7EA6A20F4847022F48472C5E90A028C
:102EC000E5E54FF459710FE50E9B23F07C0343F0C9
:102ED00050014EF624000E91FEF77AFB002860D0D8
:102EE00001232370FDE500BF36265302F80B0020B6
:102EF00021060008AC08002011060008511A00083D
:102F000008000C00D43D0008FC3D0008183E0008F5
:102F10003C3E0008543E0008603E00086C3E00083D
:102F2000AC3E0008000402404C490320FDF7F8FACB
:102F30004B4928620420FDF7F3FA4A4A296A136CC8
:102F40000F68D0F800C043F480431364146E6B68BC
:102F50006862E869198A44F4804414660C30126E81
:102F6000B860CCF8080008057FF57DADD5E90A0208
:102F700020F4F04022F4F04240F4205042F4205279
:102F8000C5E90A0277E50020FEF77AFBF0E50123A8
:102F90000EA94EF624002370FEF7A2F900287FF454
:102FA0009CAD06AFA6E56FF00406202383F31188DD
:102FB000FDF7A6FD012200232A706B6083F31188C0
:102FC00029483146FEF724FEFEE7002141F28C003D
:102FD000FEF74EFB1AE6236A002B3FF45BAFBDF809
:102FE0001A100E9A236A4FE76369002B3FF452AF21
:102FF000BDF81A100E9A636946E72369002B3FF467
:1030000049AFBDF81A100E9A23693DE7E368002B1B
:103010003FF440AFBDF81A100E9AE36834E7FDF7AD
:103020002FFBCDE6A369002B3FF434AFBDF81A1097
:103030000E9AA36928E76FF00C068EE69DF83C1007
:103040009DF83E309DF83D206FF00B0685E69DF81B
:103050003C109DF83E309DF83D207EE6E1080008DA
:10306000C108000800380240843E0008000000004B
:10307000EFF30983203383F30988002383F3118856
:10308000704700BF000000000000000000000000CA
:1030900038B52022034682F311880F4A9469A06A4A
:1030A000636204F12805A84206D00368A362FDF715
:1030B000A7FBA06AA842F8D194F822303BB994F853
:1030C00021309B0703D1D4E9043213615A61BDE872
:1030D00038400F20FDF774BDAC090020000000004F
:1030E0000D4A10689169036830B401245A600025C4
:1030F00080F820408C681360906181F8205000E0D7
:103100001B689A689442FBD35A6830BCC1E900320C
:1031100011605960FDF7E4B8AC0900200000000020
:10312000584B59481A69594942F08702F0B41A615C
:103130001A69574D574E584C22F087021A611A6986
:103140001A6B42F087021A631A6D42F087021A6501
:103150006FF48A670022D3F850C06A604FF6DF7CB4
:10316000AF604FF4EE47EE60C5F814C04FF42A2666
:103170002F624A4F6E622F604FF0FF364FF0553787
:1031800062604FF6FF75A660E76080276561226286
:1031900062622760424F4260A4F5CA348660C7600D
:1031A00045610262426202603E484A608E60C860C9
:1031B0003D4E4D614FF440400A624A620A601E640F
:1031C00020601A6842F001021A601A689507FCD55F
:1031D00099682C4A21F003019960916811F00C0163
:1031E000FBD11068274B00F0F90010609160516F1F
:1031F00041F0010151675A6F9407FCD52B4A5A6080
:103200001A682B4942F080721A604B685804FCD54A
:103210001C4B1A689201FCD526499960264A032066
:103220000021C3F88C00C3F894101268234B9A4213
:103230001ED0234B40F203721A60214A136803F038
:103240000F03032BFAD10F4B9A6842F002029A60E7
:103250009A6802F00C02082AFAD15A6C42F48042B1
:103260005A645A6E42F480425A66F0BC5B6E7047F4
:10327000144A154B12689A42DBD1114B40F20312EB
:103280001A60DAE70038024000080240001C0240E1
:10329000000002400551156400040240A004802A89
:1032A0005555550150555555000400101032000871
:1032B0000070004000108838002004E011640020F5
:1032C000003C024000ED00E041C20F410000000060
:1032D0002DE9F047664C666FF7683368DA059DB2F2
:1032E0007BD4202383F3118815F02F0F4DD0DFF806
:1032F00088814FF0000908E0AD06D6F804A01DD47F
:10330000336813F02F0F9DB23FD02B07F4D015F088
:10331000080F0CBF00208020E90748BF40F02000C4
:10332000AA0748BF40F040006B0748BF40F48070D8
:10333000FDF77EFAAD06D6F804A0E1D5636994F8EE
:103340007850002B3AD0D4E9083293423DD06269DC
:10335000591C013205EA0A05626121621D70D4E937
:1033600007329A4201D3A3692362E0684045C7D07F
:103370000368E360C3F80480C0F82490FDF740FAC6
:10338000336813F02F0F9DB2BFD1002383F3118850
:10339000380601D529062ED47A060BD56B0609D539
:1033A000202383F31188D4E911239A4249D00023C2
:1033B00083F31188BDE8F047FDF77AB90420FDF7E3
:1033C00037FAD4E908329342C1D16269002ABED0EB
:1033D0004FF48060FDF72CFA92E7202383F31188E5
:1033E0004FF40070FDF724FA6FF48073336000230C
:1033F00083F3118875E7202383F31188D4E911231F
:103400009A4229D0A26B216C581C0132A263A0649D
:10341000884293F8008001D3E36BA364206B154BC3
:10342000984206D002682263002153604162FDF792
:10343000E7F9C6F80480002383F311887A06B9D52A
:10344000ACE7A36B002BB2D01020FDF7F1F94FF6DB
:10345000BF731F40F760AAE7A26B002AD2D00820F2
:10346000FDF7E6F94FF67F733B40F360E3E700BFFB
:1034700000080020300800200C0800200000000098
:103480002DE9F843284C2369E2681340DAB2D243AD
:103490009B07226103D4BDE8F843FDF709B9202357
:1034A00083F31188214D676AEB69AA6A9968BE1A8D
:1034B000B14205F11C0998BF4FF0000820D8202721
:1034C00000E0AA6A18680A444845AA62A6EB010609
:1034D000DA68C0F80490E861C3F80C8008BFC4F84B
:1034E0000C8088F311881869904787F31188EB697D
:1034F00099688E42E5D2676AAA6ABE1A8E42DED207
:103500004B450AD09968AF62C91B0A4406499A60C4
:10351000022A2CBFBF1802374F63002383F31188A0
:10352000BDE8F843FDF7C4B8000C0040AC0900202A
:10353000084B09485968C26F890D01F03D0110B56B
:103540008C05DC6012B1D0F880009047BDE81040D7
:10355000FDF7AEB800640240700B002000000000D0
:10356000084B09485968426F090C01F03D0110B53C
:103570000C04DC600AB1806F9047BDE81040FDF795
:1035800097B800BF00640240700B002000000000EC
:10359000084B09485968C26E890901F03D0110B510
:1035A0008C01DC600AB1006F9047BDE81040FDF768
:1035B0007FB800BF00640240700B002000000000D4
:1035C00008B5074B07485968426E01F03D01D960C4
:1035D0000AB1806E9047BDE80840FDF769B800BFAA
:1035E00000640240700B002000000000000000009A
:1035F000084B09481968C26D890D01F03D0110B5ED
:103600008C059C600AB1006E9047BDE81040FDF744
:103610004FB800BF00640240700B002000000000A3
:10362000084B09481968426D090C01F03D0110B5BD
:103630000C049C600AB1806D9047BDE81040FDF716
:1036400037B800BF00640240700B0020000000008B
:10365000084B09481968C26C890901F03D0110B591
:103660008C019C600AB1006D9047BDE81040FDF7E9
:103670001FB800BF00640240700B00200000000073
:1036800008B5074B07481968426C01F03D01996085
:103690000AB1806C9047BDE80840FDF709B800BF4B
:1036A00000640240700B00200000000000000000D9
:1036B000084B09485968C26B890D01F03D0110B5EE
:1036C0008C05DC600AB1006C9047BDE81040FCF747
:1036D000EFBF00BF00600240700B00200000000040
:1036E000084B09485968426B090C01F03D0110B5BF
:1036F0000C04DC600AB1806B9047BDE81040FCF719
:10370000D7BF00BF00600240700B00200000000027
:10371000084B09485968C26A890901F03D0110B592
:103720008C01DC600AB1006B9047BDE81040FCF7EB
:10373000BFBF00BF00600240700B0020000000000F
:1037400008B5074B07485968426A01F03D01D96046
:103750000AB1806A9047BDE80840FCF7A9BF00BFE6
:1037600000600240700B002000000000000000001C
:10377000084B09481968C269890D01F03D0110B56F
:103780008C059C600AB1006A9047BDE81040FCF7C8
:103790008FBF00BF00600240700B002000000000DF
:1037A000084B094819684269090C01F03D0110B540
:1037B0000C049C600AB180699047BDE81040FCF79A
:1037C00077BF00BF00600240700B002000000000C7
:1037D000084B09481968C268890901F03D0110B514
:1037E0008C019C600AB100699047BDE81040FCF76D
:1037F0005FBF00BF00600240700B002000000000AF
:1038000008B5074B07481968426801F03D01996007
:103810000AB180689047BDE80840FCF749BF00BF87
:1038200000600240700B002000000000000000005B
:103830003B4B10B55A691C68144004F47C425A6131
:1038400062050FD5374AD2F8A83013B1D2F8AC00D0
:103850009847202383F311883348FDF719F8002394
:1038600083F3118823050FD52E4AD2F8B83013B14F
:10387000D2F8BC009847202383F311882B48FDF72A
:1038800007F8002383F31188E0040FD5254AD2F806
:10389000C83013B1D2F8CC009847202383F31188A5
:1038A0002348FCF7F5FF002383F31188A1040FD50B
:1038B0001C4AD2F8D83013B1D2F8DC009847202344
:1038C00083F311881B48FCF7E3FF002383F311887F
:1038D00062040FD5134AD2F8E83013B1D2F8EC00E5
:1038E0009847202383F311881348FCF7D1FF002366
:1038F00083F3118823040FD50A4AD2F8F83013B1A4
:10390000D2F8FC009847202383F311880B48FCF77A
:10391000BFFF002383F31188BDE81040FCF7C8BE49
:10392000003C0140AC0800204C0900205C0900204C
:103930006C0900207C0900208C0900209C090020D3
:103940002F4B10B55A691C68144004F478725A6100
:10395000A3060DD52B4A936D0BB1D06D984720234C
:1039600083F311882848FCF793FF002383F3118821
:1039700060060DD5234A936E0BB1D06E9847202375
:1039800083F311882148FCF783FF002383F3118818
:1039900021060DD51B4A936F0BB1D06F984720239A
:1039A00083F311881A48FCF773FF002383F311880F
:1039B000E2050FD5134AD2F8883013B1D2F88C0043
:1039C0009847202383F311881248FCF761FF0023F6
:1039D00083F31188A3050FD50A4AD2F8983013B1A2
:1039E000D2F89C009847202383F311880A48FCF7FB
:1039F0004FFF002383F31188BDE81040FCF758BE49
:103A0000003C0140AC080020FC0800200C0900200C
:103A10001C0900202C0900203C09002000000000A7
:103A20000D4A08B5516913680B4003F01003536148
:103A30006BB10A4A936C0BB1D06C9847202383F387
:103A400011880748FCF724FF002383F31188BDE8A1
:103A50000840FCF72DBE00BF003C0140AC08002030
:103A6000EC08002000000000000000000000000042
:103A70000D4A08B5516913680B4003F00803536100
:103A80006BB10A4A936B0BB1D06B9847202383F339
:103A900011880748FCF7FCFE002383F31188BDE87A
:103AA0000840FCF705BE00BF003C0140AC08002008
:103AB000DC08002000000000000000000000000002
:103AC0000D4A08B5516913680B4003F004035361B4
:103AD0006BB10A4A936A0BB1D06A9847202383F3EB
:103AE00011880748FCF7D4FE002383F31188BDE852
:103AF0000840FCF7DDBD00BF003C0140AC080020E1
:103B0000CC080020000000000000000000000000C1
:103B10000D4A08B5516913680B4003F00203536165
:103B20006BB10A4A93690BB1D0699847202383F39C
:103B300011880748FCF7ACFE002383F31188BDE829
:103B40000840FCF7B5BD00BF003C0140AC080020B8
:103B5000BC08002000000000000000000000000081
:103B60000D4A08B5516913680B4003F00103536116
:103B70006BB10A4A93680BB1D0689847202383F34E
:103B800011880648FCF784FE002383F31188BDE802
:103B90000840FCF78DBD00BF003C0140AC08002090
:103BA000F0B4144F144D1548154B164907F1700C1D
:103BB0000026984211D904391A4651F8044F42F8A8
:103BC000044B9042F9D8421ED21A22F0030204326A
:103BD00013449D4203D943F8046B9D42FBD86745CB
:103BE00005D0D7E90413D7E906051037E1E7F0BCA3
:103BF000704700BFA4400008980E0020980E0020D7
:103C0000980E002060410008000000000000000045
:103C1000FEE700BF00000000000000000000000000
:103C2000704700BF0000000000000000000000001E
:103C3000704700BFF0B4860746D0541E002A3CD01F
:103C4000CAB2034601E0013C37D303F8012B9D07BC
:103C5000F9D1032C2AD9CDB245EA05250F2C45EA26
:103C6000054534D9A4F1100222F00F0C03F120070E
:103C70001609674403F1100242E9045542E902556E
:103C80001032BA42F8D1721C14F00C0F03EB02127E
:103C900004F00F0613D0331F23F00303043313443F
:103CA00042F8045B9342FBD106F003042CB1CAB284
:103CB0001C4403F8012B9C42FBD1F0BC70473446F6
:103CC0001346002CF3D1F8E714460346C1E71A4621
:043CD0002646E0E7BD
:103CD400444D41206661696C75726500286E756C8F
:103CE4006C2900005B25645D20535349443A2573D5
:103CF4000D0A00004449415300000000466F756EF0
:103D040064202573200D0A00646961737061737304
:103D14000000000063616E206E6F742066696E643B
:103D24002041502025730D0A0000000057692D46DC
:103D34006920646973636F6E6E65637465640D0AEC
:103D44000000000057692D466920636F6E6E65633D
:103D54007465640D0A00000057692D4669204950B6
:103D64002069732025752E25752E25752E25750D34
:103D74000A00000069646C65000000004269736D0C
:103D8400696C6C61680A0000696E697469616C69C8
:103D94007A696E67206273705F696E69740A0000E5
:103DA4006E6F6E616D650000696E697469616C693E
:103DB4007A696E6720776966695F696E69740A005B
:103DC4004368697020494420256C780A000000008B
:103DD4004669726D77617265207665722020203A9B
:103DE4002025752E25752E25752053766E726576E1
:103DF4002025750A000000004669726D77617265BE
:103E0400204275696C642025732054696D652025F2
:103E1400730A00004669726D77617265204D696EA0
:103E24002064726976657220766572203A20257561
:103E34002E25752E25750A004472697665722076E2
:103E440065723A2025752E25752E25750A00000009
:103E540030393A35393A3534000000004E6F762057
:103E6400203220323032300044726976657220622A
:103E740075696C742061742025730925730A000028
:103E84006D61696E3A206D326D5F776966695F694D
:103E94006E69742063616C6C206572726F72212884
:103EA4002564290D0A000000696E697469616C69F2
:103EB4007A696E6720776966695F72657175657383
:103EC400745F7363616E0A00106002400860024010
:103ED4000000000B28600240086002400006010C4C
:103EE40040600240086002400010020D5860024029
:103EF400086002400016030E706002400C6002402D
:103F04000000040F886002400C60024000060510A7
:103F1400A06002400C60024000100611B86002402C
:103F24000C6002400016072F10640240086402402F
:103F34000000083828640240086402400006093979
:103F4400406402400864024000100A3A5864024087
:103F54000864024000160B3B706402400C6402408B
:103F640000000C3C886402400C64024000060D44CE
:103F7400A06402400C64024000100E45B864024084
:103F84000C64024000160F466D61696E00164130E4
:103F9400040444080C1014181C2021220000000002
:103FA4000009121B242D363F48415A536C657E7715
:103FB40019100B023D342F265158434A757C676E05
:103FC400323B2029161F040D7A7368615E574C45F5
:103FD4002B2239300F061D14636A7178474E555CE5
:103FE400646D767F4049525B2C253E3708011A13D5
:103FF4007D746F6659504B42353C272E1118030AC5
:10400400565F444D727B60691E170C053A332821B4
:104014004F465D546B627970070E151C232A3138A4
:104024004148535A656C777E09001B122D243F3694
:1040340058514A437C756E671019020B343D262F84
:10404400737A6168575E454C3B3229201F160D0474
:104054006A6378714E475C55222B3039060F141D64
:10406400252C373E0108131A6D647F7649405B5254
:104074003C352E2718110A03747D666F5059424B44
:10408400171E050C333A21285F564D447B72696034
:104094000E071C152A233831464F545D626B707924
:1040A40060410008980E0020980E0020980E002011
:1040B4006041000800000000000000000000000053
:1040C4006041000800000000000000000000000043
:1040D4006041000800000000000000000000000033
:1040E4006041000800000000000000000000000023
:1040F4006041000800000000000000000000000013
:104104006041000800000000000000000000000002
:1041140060410008000000000000000000000000F2
:104124000000000000000000000802400100000040
:104134004C00000000000000612300086124000816
:10414400910D0008110E0008810D0008010E0008F1
:0C4154005123000851240008510B000802
:04000005080002D914
:00000001FF
