:020000040800F2
:1000000000040020D9020008DB020008DB0200081F
:10001000DB020008DB020008DB020008DB0200084C
:10002000DB020008DB020008DB020008012F0008E9
:10003000DB020008DB020008DB020008DB0200082C
:10004000DB020008DB020008DB020008DB0200081C
:10005000DB020008DB020008F1390008A1390008C2
:100060005139000801390008B138000891360008FC
:10007000613600083136000801360008D135000825
:10008000A135000871350008DB020008DB0200081A
:10009000DB020008DB020008DB020008D1370008A1
:1000A000DB020008DB020008DB020008DB020008BC
:1000B000DB020008DB020008DB020008DB020008AC
:1000C000DB020008DB020008DB020008DB0200089C
:1000D000DB020008DB02000861310008DB020008D7
:1000E000C1360008DB020008DB020008DB02000862
:1000F000DB020008DB020008DB02000841350008D3
:10010000DB020008DB02000811330008DB020008F4
:10011000DB020008DB020008DB020008DB0200084B
:1001200011350008E1340008B134000881340008BA
:1001300051340008DB020008DB020008DB02000883
:10014000DB020008DB020008DB020008DB0200081B
:1001500021340008F1330008C1330008DB02000835
:10016000DB020008DB020008DB020008DB020008FB
:10017000DB020008DB020008DB020008DB020008EB
:10018000DB020008DB020008DB020008DB020008DB
:10019000DB020008DB020008DB020008DB020008CB
:1001A000DB020008DB020008DB020008DB020008BB
:1001B000DB020008DB020008DB020008DB020008AB
:1001C000DB020008DB020008DB020008DB0200089B
:1001D000DB020008DB020008DB020008DB0200088B
:1002000072B6274880F30888264880F30988264874
:100210004EF60851CEF200010860022080F31488E7
:10022000BFF36F8F03F04CFC02F0C2FE4FF055306D
:100230001E491B4A91423CBF41F8040BFAE71C4996
:10024000184A91423CBF41F8040BFAE719491A4A8F
:100250001A4B9A423EBF51F8040B42F8040BF8E7E0
:1002600000201749174A91423CBF41F8040BFAE7B6
:1002700003F0DEFB03F01CFC134C144DAC4203DA1C
:1002800054F8041B8847F9E702F042F8104C114D6E
:10029000AC4203DA54F8041B8847F9E703F000BCCA
:1002A00000040020000800200000000800000020DA
:1002B00000040020E83F000800080020000800209B
:1002C00000080020500D0020E0010008E0010008B7
:1002D000E0010008E001000892E700F000F8FEE706
:1002E0002DE9F04FC1F80CD0C3689D46BDE8F08FF2
:1002F000002383F311882846A047002002F010FE57
:10030000FEE702F035FE00DFFEE70000844641EA2A
:10031000000313F003036DD1403A41D351F8043B7D
:1003200040F8043B51F8043B40F8043B51F8043BCF
:1003300040F8043B51F8043B40F8043B51F8043BBF
:1003400040F8043B51F8043B40F8043B51F8043BAF
:1003500040F8043B51F8043B40F8043B51F8043B9F
:1003600040F8043B51F8043B40F8043B51F8043B8F
:1003700040F8043B51F8043B40F8043B51F8043B7F
:1003800040F8043B51F8043B40F8043B51F8043B6F
:1003900040F8043B51F8043B40F8043B403ABDD2DE
:1003A000303211D351F8043B40F8043B51F8043B80
:1003B00040F8043B51F8043B40F8043B51F8043B3F
:1003C00040F8043B103AEDD20C3205D351F8043B0F
:1003D00040F8043B043AF9D2043208D0D2071CBFDB
:1003E00011F8013B00F8013B01D30B880380604604
:1003F000704700BF082A13D38B078DD010F003037A
:100400008AD0C3F10403D21ADB071CBF11F8013BE9
:1004100000F8013B80D331F8023B20F8023B7BE738
:10042000043AD9D3013A11F8013B00F8013BF9D263
:100430000B7803704B7843708B78837060467047FD
:1004400090F800F06DE9024520F007016FF0000C14
:1004500010F0070491F820F040F049804FF00004BC
:100460006FF00700D1E9002391F840F000F1080097
:1004700082FA4CF2A4FA8CF283FA4CF3A2FA8CF3CF
:100480004BBBD1E9022382FA4CF200F10800A4FA36
:100490008CF283FA4CF3A2FA8CF3E3B9D1E904238A
:1004A00082FA4CF200F10800A4FA8CF283FA4CF3C1
:1004B000A2FA8CF37BB9D1E9062301F1200182FA7B
:1004C0004CF200F10800A4FA8CF283FA4CF3A2FA81
:1004D0008CF3002BC6D0002A04BF04301A4612BA8F
:1004E000B2FA82F2FDE8024500EBD2007047D1E992
:1004F000002304F00305C4F100004FEAC50514F021
:10050000040F91F840F00CFA05F562EA05021CBFF1
:1005100063EA050362464FF00004A9E7000000000B
:10052000F0B4264C0346012220689A40024218BFCC
:10053000002001D0F0BC7047214D024322602A6B9D
:10054000204842F4001204EBC304C4E901102A63FA
:100550000C202A6D1C4900FB03F042F400120E58D7
:100560002A652A6D326822F01F0208443260326820
:1005700012F00102FBD10C2404FB03133D24D97AB1
:100580005D7A5F684B099B00AC4003F1604301F169
:1005900060453C6003F56143012405F5614501F0C8
:1005A0001F01326004FA01F1A0222124746185F850
:1005B0000023C3F880111960BCE700BF700B002056
:1005C000003802407C080020543D00080000000074
:1005D0000C490D4B4A6922F4704242F480524A6140
:1005E0009A6822F400429A60DA6842F40042DA60C3
:1005F0001A6842F400421A605A6822F400425A60B3
:10060000704700BF00380140003C0140000000007E
:10061000704700BF00000000000000000000000064
:10062000024AD3780133DBB2D3707047F80B002055
:1006300030B4202383F311880B4CD4E900354942B0
:10064000281A0840821A9A4207D3954205D362605D
:10065000002383F3118830BC70470020002383F30C
:10066000118830BC704700BF480B0020000000001C
:10067000024AD36843F0C003D3607047004400408F
:1006800008B5202080F31188FFF7A2FF002383F331
:10069000118880F31188034A0349C2E93E1383F3AA
:1006A000118808BDAC0800202106000800000000E9
:1006B000202383F311880D4B5B6813F4006302D190
:1006C00083F311887047EFF30983203B4FF080726A
:1006D000DA6183F30988064A116892698968926829
:1006E00091428CBF034A044A9A61704700ED00E0D2
:1006F000AC09002003030008060300080000000006
:10070000084A10B4D2E900344942201A08409842FD
:1007100004D3844202D310BC50607047002010BC48
:10072000704700BF480B00200000000000000000E0
:100730000E4A0F4B52685B6F816830B4D31AD0E910
:100740000445C2685B1A01324168C260E41802685D
:10075000836045F100058B4288BF43609342C0E946
:10076000044538BF036030BC704700BF001000E094
:10077000AC090020000000000000000000000000A4
:10078000014B5B6883607047001000E000000000D0
:10079000202383F3118890F82030072B0DD8DFE851
:1007A00003F0270C0C2308040C08426A93680133F9
:1007B0009360D0E9003213605A6010B400224FF009
:1007C000FF3481680C4B446280F820201B689A68D3
:1007D0008A42FBD25A680021C0E90032106058609A
:1007E00081F3118810BC7047436A00221A60E4E765
:1007F000002383F311887047AC090020000000003B
:1008000000228168064B80F820201B689A688A4283
:10081000FBD25A68C0E9003210605860704700BFD0
:10082000AC090020000000000000000000000000F3
:10083000F8B5164F57F8044FBC4220D005460026A5
:1008400004E00B2A1CD02468BC4218D0E3682B4378
:10085000E36015B123691D42F5D0D4E90103416B72
:1008600090F820200B430A2A4363EAD1426A1342DC
:10087000E9D04662FFF7C4FF2468BC42E6D1F8BD68
:10088000426A32EA0303DED1F3E700BF000800202A
:1008900038B504460068844209D000250368236007
:1008A0005C604562FFF7ACFF2068A042F6D138BD1E
:1008B000FEE700BF00000000000000000000000094
:1008C00011F00C0F00D1704772B6024B024ADA6287
:1008D000FEE700BFAC090020643B000800000000F8
:1008E00011F00C0F38B54FD10D4641680B78044616
:1008F000002B33D1456A2A68136823F01F03136065
:100900001368D807FCD46A7A206A6D683D23934047
:1009100002682B60136823F01F0313601368DB0762
:10092000FCD4457A4A6841683D23AB400B60002AFD
:100930002FD004232370204690472378042B28D0FF
:10094000202383F31188A06820B10023A3604362B1
:10095000FFF756FF002383F3118838BDEB0603D55C
:100960004B68002BF9D09847AD06F6D563685B68F5
:10097000002BF2D004222270204698472378042BC3
:10098000EBD10323237038BD72B6064B064ADA62F8
:10099000FEE702232370202383F31188A068002838
:1009A000D3D1D7E7AC090020643B00080000000069
:1009B0002DE9F04F02F00308C2F341154746C2F398
:1009C000C1064FEAD21C00244FF00F0B4FF0010A72
:1009D000AE4613E0D0F8009003EA09033B43072C2E
:1009E00003603ED8036A23EA020215430562490800
:1009F00035D0B6004FEA8E0EBF000134CB07F6D5D6
:100A000043680AFA04F223EA02034360826803257A
:100A1000630005FA03F322EA030232438260C568E9
:100A200004F0070225EA030545EA0E059200B8F135
:100A3000020FC5606FEA03030CFA02F50BFA02F22B
:100A4000C8D1072C13D8D0F8209029EA0202154308
:100A50000562026813403B4349080360C9D1BDE801
:100A6000F08F436A23EA020215434562BFE7D0F8DC
:100A7000249029EA020215434562EAE700000000DB
:100A8000002070470000000000000000000000008F
:100A9000084B99691A6810B481F820001068186032
:100AA0000124436082F8204010BC9A611046FFF791
:100AB00017BC00BFAC0900200000000000000000CF
:100AC000F0B54B1C87B048D03D4C3E4FA369059311
:100AD0002646022956F81C3F05463B4838BF0221EE
:100AE000B342426A049759D0A76AD21B89182ED301
:100AF00098681B689A68091A914204D91B68891A78
:100B00009A688A42FAD35A68029201AF0193176039
:100B10005F6003919A68511A4FF0FF3299606262E8
:100B20002846FFF7B5FF049B6BB1E369BB421BD0BE
:100B3000DDE901321360019BB3425A6003D09A6829
:100B400003990A449A60A369586A07B0F0BD9A688D
:100B50009142D1D20F444763CEE7194CFFF798FF7B
:100B6000A369586A07B0F0BD019BE3610022B3425C
:100B70005E60049220D09A68039D1348A16A2A44BB
:100B80009A60436A581A8242DDD9CB1A1344012B6A
:100B900098BF821C0C4B0A445A63D4E78B1801AFF0
:100BA000A262CDE90166C4E907770391002243639D
:100BB00002230261C360B3E7034BDA60C3E700BFFF
:100BC000AC09002091070008000C00400000000064
:100BD00061B1084A10B4926944680346C2E900341E
:100BE0000420226010BC5A60FFF76ABF4FF0FF304C
:100BF000704700BFAC0900200000000000000000AA
:100C0000F8B504460F461646202383F3118803E007
:100C1000FFF7DEFF002818DBA56831462046002DCF
:100C2000F6D06269A368511C013B6161A360177033
:100C3000D4E904329A4224BFE3686361E36903B1F3
:100C40009847002080F31188F8BD85F31188F8BD1E
:100C50003030FFF7D5BF00BF0000000000000000EB
:100C600030304FF0FF32FFF7CBBF00BF0000000075
:100C700070B5202305460E4683F3118803E0FFF785
:100C8000A7FF00281ADBAC6831462846002CF6D0B6
:100C9000A969AB6828694A1C013B8242AB60AA6122
:100CA00028BFEB680C7828BFAB61EB690BB1284615
:100CB0009847002383F31188204670BD84F3118880
:100CC00070BD00BF00000000000000000000000038
:100CD0000C30FFF7CDBF00BF000000000000000097
:100CE0000C304FF0FF31FFF7C3BF00BF0000000022
:100CF00008B50146202383F311880820FFF7E0FEA2
:100D0000002383F3118808BD0000000000000000EC
:100D1000F8B50646202383F31188134B13481D6A48
:100D200087695C6A032018702D682468EA60D3E93B
:100D30000AC24CF4806C42F480626E60C5F800C058
:100D4000E160666022602A6842F001022A6022683F
:100D500042F00102226043F8087F7B62FFF798FEB1
:100D6000002383F31188F8BD7C080020AC09002023
:100D700070B52023D0E90015068983F31188174C3C
:100D80006268D2E90220012383409BB2538300238F
:100D900083F31188E1B18DB12A463046FFF7B8FFE1
:100DA000202383F311886268D2E9022101238B405A
:100DB0009BB21383002080F3118870BD3046084A2F
:100DC000FFF7A6FF32462946054802F07BFEE7E71B
:100DD00003492A463046FFF79BFFE1E77C080020E5
:100DE000240C0020000000000000000000000000B3
:100DF0002DE9F04F89B04FF0000882460F4601926E
:100E000046460DF10F05B7F5005FB9464FF00A0BE6
:100E100028BF4FF40059012405A8CDE90565ADF8B8
:100E20001C40FFF7A5FF0BF1FF3C034648B99DF8B6
:100E30000F2012090F2A08D00FFA8CFBBBF1FF3FDD
:100E4000EAD1002009B0BDE8F08FBBF1000FF8D067
:100E50000AEB080205A80593ADF81C900692FFF76F
:100E600087FF0028EDD10E4B019A1B7813430BD05E
:100E7000A7EB0907C844BFB20FFA88F8002FC2D108
:100E8000012009B0BDE8F08F04AA059305A802234C
:100E90000692ADF81C30FFF76BFF0028E8D0D0E7D2
:100EA000210C0020000000000000000000000000F5
:100EB0002DE9F043CF2885B0074633D000F13B033E
:100EC000DBB2012B2ED90DF1030501AE0B244FF03F
:100ED00000094FF001083046CDE90195ADF80C80CE
:100EE000FFF746FF631E58BB9DF80320BA4202D0AD
:100EF00013F0FF04EFD10B244FF000080127304618
:100F0000CDE90185ADF80C70FFF732FF631EB8B96B
:100F10009DF8032012B113F0FF04F0D1012005B0B9
:100F2000BDE8F08301AE00220DF103050123304638
:100F3000CDE90125ADF80C30FFF71AFF0028C5D028
:100F4000002005B0BDE8F0830000000000000000B4
:100F5000F0B587B0A0F1C3049DF830508DF80000C3
:100F60000C2C34D8DFE804F0764D070736365B6585
:100F7000333333336D0000238DF80130ADF8023088
:100F800005263F4B1B78002B37D1ADF102036D4690
:100F900099193C4C2A46771E7F2301E012F8010F75
:100FA00080EA43039142E35CF8D106AA3A445B002D
:100FB00002F8183C002303A80395ADF814600493CD
:100FC000FFF7D6FEB0FA80F0400907B0F0BD002070
:100FD00007B0F0BD1D0A8DF80630294B8DF805507D
:100FE0001B780C0C002249BA8DF80140ADF80210B4
:100FF0008DF804200826002BC7D0013EF6B26D46BE
:10100000D8E7C1F307230DB163F07F038DF80130FA
:1010100000238DF802108DF803300526B1E712BACF
:101020000C0C4BBA01928DF80140ADF80230092644
:10103000A7E70B0C49BA8DF80130ADF80210052670
:101040009FE7FF224FF6FF738DF80120ADF80230C5
:10105000052696E7C1F307230DB163F07F038DF8F2
:101060000130150E140C130A8DF802108DF80620AD
:101070008DF803508DF804408DF80530082680E780
:10108000210C00202C3E00080000000000000000A1
:101090002DE9F0474FF0000984B080468A46164695
:1010A0004F460A2513E00A20FFF722FE00231A46C6
:1010B00019460097CF20FFF74BFFCF20FFF7F8FE30
:1010C000013D0A20FFF714FE15F0FF0526D0012E82
:1010D0000CBF022333464FF000024FF0C8000097C8
:1010E000414604BFB1461E46FFF732FF01280446C1
:1010F000D9D1C820FFF7DCFE01280446D3D1002255
:10110000314603A8B9F1000F0CD0FFF771FE9DF82E
:101110000C308AF800300446012CC4D1204604B0BB
:10112000BDE8F0874A465046FFF762FE0446F3E703
:10113000F82A2DE9F041164605468846144688BF30
:101140008F180ED9391B2846F822FFF7A1FFF83C6B
:101150000128A6EB040305F1F8050DD1F82CF1D810
:101160009844A2B241462846FFF792FF012808BFE3
:10117000002001D1BDE8F0816FF00500BDE8F081ED
:101180002DE9F047FF2884B00546894695BFC4265F
:10119000CA26012700274FF00A0A4FF0000815E081
:1011A0000A20FFF7A5FD00231A461946CDF8008056
:1011B000CF20FFF7CDFECF20FFF77AFE0A20FFF702
:1011C00097FD0AF1FF3313F0FF0A1AD000970423AA
:1011D000002229463046FFF7BBFE01280446DFD136
:1011E0003046FFF765FE01280446D9D13A4604216E
:1011F00003A8FFF7FDFD01280446D1D1039BC9F8E0
:101200000030204604B0BDE8F08700BF00000000B9
:1012100008B5FFF7B5FF012814BF6FF005000020E7
:1012200008BD00BF0000000000000000000000003A
:1012300030B51F4D2C6883B014B1204603B030BDCB
:1012400029464FF48050FFF7E3FF10B100232B60D5
:10125000F3E701A941F2F430FFF7DAFF0028F5D1F6
:101260002B68144A934215D0134A934209D0134A6B
:10127000934215D02C6824F4702444F4A0242C60EC
:10128000DBE7019B032BF5D0042B0CBF0C4B0D4B64
:101290002B60EFE7019B012BECD00B4B2B60E9E7B8
:1012A00029464FF46C10FFF7B3FF0028E2D0CDE7DA
:1012B000500B0020A0021000B0021000F00010003F
:1012C000B1021000B2021000A102100000000000E4
:1012D0002DE9F04F8BB0DFF83C91029183469046A8
:1012E0000A2713E00A20FFF703FD002300931A46A4
:1012F0001946CF20FFF72CFECF20FFF7D9FD013F85
:101300000A20FFF7F5FC17F0FF077CD0B8F1010FBA
:1013100008BF4FF002080025434600952A4659466B
:10132000C720FFF715FE01280646DBD1C720FFF7CF
:10133000BFFD01280646D5D1DDF808A0ADF818504C
:101340002C460390464626E0B6F5005F94BFF32294
:10135000F1220DF1170307930023089307A84FF01C
:1013600001038DF81720ADF82430FFF701FD024688
:101370000AEB040107A84ABBCDE90712ADF82450D7
:10138000FFF7F6FC10BB99F800209AB1731B2C44B0
:101390009EB224B2E6B1B6F5005F354628BF4FF4E1
:1013A0000055ADB2002CCFD0B6F5005F94BFF3224C
:1013B000F222CEE706A94FF0020307A80892ADF883
:1013C00024300791FFF7D4FC0028DFD0002689E7FE
:1013D00099F80030039ED3B103231C460022ADF8D8
:1013E000243007A806ABCDE90723FFF7C1FC00288E
:1013F000ECD10AAB234413F8112C002AE6D113F8E0
:10140000123CC32BE2D130460BB0BDE8F08F022373
:101410001C46E3E7210C0020000000000000000053
:10142000F82A2DE9F041164605468846144688BF3D
:101430008F180ED9391B2846F822FFF749FFF83CD0
:101440000128A6EB040305F1F8050DD1F82CF1D81D
:101450009844A2B241462846FFF73AFF012808BF48
:10146000002001D1BDE8F0816FF00500BDE8F081FA
:101470002DE9F047302882B00646884695BFC3273D
:10148000C9274FF001094FF000090A254FF0000A63
:1014900014E00A20FFF72CFC00231A461946CDF869
:1014A00000A0CF20FFF754FDCF20FFF701FD013D45
:1014B0000A20FFF71DFC15F0FF0510D0CDF80090B5
:1014C0000423424631463846FFF742FD01280446D0
:1014D000DFD13846FFF7ECFC01280446D9D120467D
:1014E00002B0BDE8F08700BF00000000000000006F
:1014F00008B5FFF7BDFF012814BF6FF005000020FD
:1015000008BD00BF00000000000000000000000057
:10151000FFF7EEBF00000000000000000000000028
:1015200030B540F4807483B0002521464FF4A550B7
:10153000FFF7EEFF01A94FF4A5500195FFF768FEF4
:101540000028F2D1019BA342EFD103B030BD00BF10
:10155000204B5A781AB15A78013AD2B25A705A7856
:1015600022B91B7803F0FF0013B9704700207047C1
:1015700000B583B002E0019BD90708D501A910206E
:10158000FFF746FE0028F6D003B05DF804FB01A982
:101590000120FFF73DFE0028F6D101998A070FD4FC
:1015A00001A90B20FFF734FE0028EDD10199CB07EC
:1015B000EAD521F001010B200191FFF799FFE3E744
:1015C00021F0020101200191FFF792FF0028E7D0EE
:1015D000DAE700BFF80B0020000000000000000068
:1015E0002DE9F04188B00446082301208DF8114010
:1015F0008DF81000ADF81230BDF81230814D12FA9E
:1016000083F39BB2ADF81230AB7816460F4663B940
:101610006B7803F0FF02002B64D12B78002B40F095
:10162000A0806B780133DBB26B7000230693ADF8BA
:101630000E300593BDF81210059A42F00102059292
:10164000059840EA04240594059B43EA0143059369
:10165000059941F28C00FFF74BFF034648B16A78C9
:101660001AB16A78013AD2B26A70184608B0BDE879
:10167000F0810590059B43F002030593059941F223
:101680007800FFF735FF03460028E8D10690ADF853
:101690000E00BDF80E309BB2B3F57A7F10D32DE06B
:1016A000059C14F0020422D0BDF80E3001339BB229
:1016B000ADF80E30BDF80E309BB2B3F57A7F1DD277
:1016C00005A941F27800FFF7A3FDB8B9BDF80E30C7
:1016D0009BB2B3F5FA7FE3D30A20BDF80E30FFF7D3
:1016E00007FBDDE76B780344DBB26B709DE7464890
:1016F00006A9FFF78DFD0346002869D1069B002B44
:101700007BD0069B0793BDF812309BB2ADF8123028
:101710000798082204A9FFF783FE034600289ED1FC
:10172000079B08330793079839463246FFF778FE40
:101730000346002893D1079B1E440796069B9B00F7
:101740000593059B43F002030593059941F26C0054
:10175000FFF7CEFE0346002881D1FFF7F9FE0346CE
:1017600083E706A90B20CDE90622FFF751FD0346CA
:1017700000287FF47AAF0699CB0708D441F0010125
:101780000B20FFF7B5FE034600287FF46EAF06A9D5
:101790000120FFF73DFD034600287FF466AF069960
:1017A000880721D54FF0050807A90F20FFF730FD66
:1017B00003461420002B7FF458AF079A520709D430
:1017C000FFF796FAB8F10108EED16FF003034CE78A
:1017D000069444E700931A461946CF20FFF7B8FB5A
:1017E000CF20FFF765FB1CE741F002010120FFF766
:1017F0007FFE03460028D5D037E7FFF7A9FE6FF03C
:10180000020332E7F80B002000041500000000007E
:1018100010B50A4C237882B06BB90422FF230DEB7C
:10182000020110208DF80430FFF7DAFE08B9012319
:10183000237002B010BD6FF00D00FAE7220C0020FB
:1018400000B5042283B003460DEB020112208DF88F
:101850000430FFF7C5FE03B05DF804FB0000000094
:1018600000B50B4B83B000229A70FEF709FF01A967
:1018700041F27000FFF7CCFC38B9019941F27000D9
:1018800041F002010191FFF733FE03B05DF804FB64
:10189000F80B002000000000000000000000000025
:1018A000F8B51E46E8B1E1B1DAB1104FBB689A4213
:1018B00019D87B689842044615D37B68D7F808C0CE
:1018C000144463449C420ED8FFF732FC68B97B682D
:1018D000BA6813449C4200D03EB1BDE8F840FFF71F
:1018E000BFBF002EF9D16FF00B00F8BDF80B002040
:1018F00030B52C289BB00446154634D01B283CD06C
:10190000062843D00E282CD0322848D02F284FD07C
:10191000342865D011287DD0132800F09280042847
:1019200000F0A08065281ED0092800F0AD802A288C
:1019300067D0202815D101A9002308222846FFF7E7
:10194000AFFF70B9BDF80820019905F10800012327
:10195000FFF7A6FF28B9514B1B6813B101A9204618
:1019600098471BB030BD284601A900230422FFF789
:1019700097FF0028EFD01BB030BD104601A900230F
:101980000822FFF78DFF0028EBD1E4E7104601A9FC
:1019900001233022FFF784FF0028E2D1DBE7104665
:1019A00001A900231422FFF77BFF0028D9D1D2E739
:1019B00001AC2346002203F8012B1AA98B42FAD16D
:1019C0002846002364222146FFF76AFF0028C8D179
:1019D000324B1B68002BC4D021462F209847C0E70C
:1019E0001046042200230DEB0201FFF759FF0028E7
:1019F000B7D12A4B1B68002BB3D00146204698472D
:101A0000AFE7104601A901230422FFF749FF002890
:101A1000A7D1A0E7224A002301AC13702846214633
:101A20000422FFF73DFF00289BD11C4B1D4A1B6879
:101A30009DF804101170002B93D021461120984777
:101A40008FE701AC1046214600232C22FFF728FF28
:101A5000002886D1114B1B68002B82D02146132011
:101A600098477EE7104601A900230422FFF718FFDC
:101A700000287FF476AF094B1B68002B3FF471AF51
:101A800001A9042098476CE7104601A901236422AC
:101A9000FFF706FF00287FF464AF5CE7F40B00203B
:101AA000220C0020200C002000000000000000009C
:101AB0000FB42DE9F04F87B010AB53F8044B0293ED
:101AC000224612F8011B002900F03E82C04D9A46C2
:101AD0004FF0000B0CE02B68BD48DB680BF1010BED
:101AE00014469847224612F8011B002900F0BE80D8
:101AF0002529F0D163782D2B04BFA21C0120137877
:101B000018BF00202B2B03BF53784FF0010E7244F7
:101B10004FF0000E302B05BF1F46537820270132AF
:101B20002A2B40F0AC805AF8041B5378941C2E2BBF
:101B300000F03081002203F0DF064C2E00F0B2806E
:101B4000A3F1440CBCF1340F00F29B81DFE81CF0E0
:101B50006101990199019901990161019901990125
:101B60009901990199019D01350099019901990106
:101B70009901940099019901350099019901990100
:101B800099019901990199019901990199015001CE
:101B900061019901990199019901610199019901E5
:101BA0009901990199019D013500990199012D0132
:101BB000990194009901990135004FF0100E5AF8DF
:101BC000046B0DF1170300E06346B046B6FBFEF66A
:101BD0000EFB168909F13002392AC8BF09F1370214
:101BE000D2B2F04503F1FF3C03F8012CECD20DF129
:101BF0000C080DF11706A6EB0C06C6460DF1170CE6
:101C000001E013F8012B0EF8012B6345F9D1891B74
:101C1000013E21EAE17920B90029C9F1000900F368
:101C20004881002E0FDB731C434401941C462A6834
:101C300018F8011BD26828469047A045F7D10BF150
:101C4000010B019CB344B9F1000F3FF44BAF4E467A
:101C50002B683946DB6828469847013EF8D1224672
:101C6000CB4412F8011B00297FF442AF584607B05D
:101C7000BDE8F04F04B070474FF00A0E9FE7541CC8
:101C8000002BF3D00021A3F13002D2B2092A01EBDC
:101C900081063FF64CAF14F8013B02EB4601002BE6
:101CA000F1D1E3E714F8013B002BDFD0A3F14406A8
:101CB000342E00F2E6800FF2080C5CF826F000BF2C
:101CC000131E0008831E0008831E0008831E0008E0
:101CD000831E0008131E0008831E0008831E0008D0
:101CE000831E0008831E0008831E00088B1E000848
:101CF000BB1B0008831E0008831E0008831E00080B
:101D0000831E0008791C0008831E0008831E00083B
:101D1000BB1B0008831E0008831E0008831E0008EA
:101D2000831E0008831E0008831E0008831E00080F
:101D3000831E0008831E0008831E0008F11D000892
:101D4000131E0008831E0008831E0008831E00085F
:101D5000831E0008131E0008831E0008831E00084F
:101D6000831E0008831E0008831E00088B1E0008C7
:101D7000BB1B0008831E0008831E0008AB1D000863
:101D8000831E0008791C0008831E0008831E0008BB
:101D9000BB1B00082378002B3FF468AF2A2B77D1B8
:101DA00063785AF8042B0234C5E65AF8048BB8F16C
:101DB000000F00F0BF8098F80030002A40F0AD809E
:101DC000002B00F0AE8047F6FE72464604E000BFEE
:101DD00000080020D34205D416F8017FA8EB0603C3
:101DE000002FF7D1A6EB0806891B2027013E10E73C
:101DF0005AF8043B8DF80C300139202721EAE179AB
:101E000018B90029C9F1000972DC00260DF10C088F
:101E100009E75AF804CBBCF1000F5FDBBEF1000FFD
:101E200000F08E802B238DF80C300DF10D060DF196
:101E30000C0806F10B0301931A46474BA3FB0CE376
:101E4000DB0803EB83099E46ACEB49033033E146E4
:101E5000DBB2B9F1090F02F8013DF446EDDC9E4614
:101E6000019BA3EB020CB444734601E012F8013F5E
:101E700006F8013B6645F9D1A6EB0806891B013E31
:101E8000C7E68DF80C300139B8E74FF0080E96E63A
:101E900001340022A3F13006F6B2092E02EB820CC7
:101EA0003FF649AE14F8013B06EB4C02002BF1D192
:101EB000DCE6CDF8049098F800102D2921D02B688D
:101EC0003946DB682846984719F10109F7D1019B8B
:101ED000002EABEB030BBFF6A6AE03E62D23CCF131
:101EE000000C8DF80C300DF10D060DF10C08A0E77B
:101EF0009DF80C10CDF804902D290DF10C08064624
:101F0000DDD1302FDBD12A681448D268904708F120
:101F100001080BF1010B013ED1E713B1013A7FF546
:101F200054AF21EAE17918B90029C9F100090DDCA3
:101F3000202788E6DFF82880002A3FF444AFEDE749
:101F40000DF10C08464674E78B468FE6CDF80490F9
:101F500020274FF0FF36AEE7CDCCCCCC00080020D8
:101F6000703B0008000000000000000000000000BE
:101F7000F0B52C289FB00C462ED01ED8112834D096
:101F8000132827D101F10A063046FEF759FA544FBB
:101F90000546397853483246FFF78AFD524BADB2B9
:101FA0001B78042DDBB234D03878984229D2FFF761
:101FB00047FC3B7801333B700CE032280AD14B4898
:101FC000FFF776FDE3780093A3786278217848489C
:101FD000FFF76EFD1FB0F0BD0B78002BFAD145481E
:101FE000FFF766FDFFF714FCF4E73D4C0B7800208B
:101FF000207053B1FFF724FC2378013323701FB006
:10200000F0BD3D493D48FFF753FDFFF701FC1FB010
:10201000F0BDA27A442AC7D1E27A492AC4D1227BF0
:10202000412AC1D1627B532ABED133493448FFF7DC
:102030003FFD344869220146002301E011F8012FD9
:1020400001339BB2002AF9D1402B33D02A494422D4
:102050000DF152030DF1570401E011F8012F03F8BF
:10206000012BA342F9D10022FF210223ADF8501029
:102070008DF857208DF873208DF84D30692102E0DE
:1020800010F8011F1A46531C9BB20029F8D13F2AB1
:10209000A0D81D4A03A91344642001E012F8010FDF
:1020A00001F8010B9342F9D103A96C222820FFF714
:1020B00097FA8FE71449642301F13F05A3F13A022F
:1020C000062AA3F1470485D9192C83D9662B81D818
:1020D0008D42BBD011F8013F2F2BEFD87AE700BF1C
:1020E000230C0020783B0008200C0020D83B00087F
:1020F000EC3B0008C03B0008883B0008A83B0008F8
:10210000903B00089D3B00089C3B0008000000003D
:102110002DE9F04F85B0CDE90232C7694FF02009B3
:1021200089F31188A2B3DDF80CB004460E464FF0D7
:10213000000AA2689345D4E904208CBFA5685D46D7
:10214000A2EB0008A84544D829D2A5EB08034246D3
:1021500031460193FEF7DAF806EB0801DDF804805A
:10216000E0684246FEF7D2F8A268E1684346CB1821
:10217000521B6361A2600FB12046B8478AF31188F1
:10218000ABEB050B2E4489F31188BBF1000FD0D1C6
:102190000398002383F3118805B0BDE8F08F2A4629
:1021A0003146FEF7B3F8E2686261A268521BA26092
:1021B000002DE0D102992046FEF70AFD0028B8D094
:1021C000039BA3EB0B00002383F3118805B0BDE84C
:1021D000F08F2A463146FEF799F862692A44626117
:1021E000E3E700BF00000000000000000000000066
:1021F0003030FFF78DBF00BF00000000000000007E
:1022000030304FF0FF33FFF783BF00BF0000000006
:102210002DE9F04F85B0CDE90232C7694FF02009B2
:1022200089F31188002A34D0DDF80CB004460E463C
:102230004FF0000AA268A169934522698CBFA56886
:102240005D46A2EB0108A84544D829D2A5EB0803B6
:10225000424630460193FEF759F806EB0800DDF8D8
:102260000480E1684246FEF751F8A268E1684346FF
:10227000CB18521BA361A2600FB12046B8478AF366
:102280001188ABEB050B2E4489F31188BBF1000FCD
:10229000D0D10398002383F3118805B0BDE8F08FF7
:1022A0002A463046FEF732F8E268A261A268521B65
:1022B000A260002DE0D102992046FEF789FC00289B
:1022C000B8D0039BA3EB0B00002383F3118805B068
:1022D000BDE8F08F2A463046FEF718F8A2692A4476
:1022E000A261E3E700000000000000000000000021
:1022F0000C30FFF78DBF00BF0000000000000000A1
:102300000C304FF0FF33FFF783BF00BF0000000029
:10231000214B22491A6962F087022DE980481A612F
:102320001A6902F087021A611A691A6A62F0805209
:102330001A621A6A02F080521A624FF0FF32186A6B
:10234000586A5A6200205A6A58625A6A1A6C42F0F5
:1023500080521A641A6E42F080521A661A6E0A6827
:1023600042F480720A601A6F02F44072B2F5007F84
:1023700099B003D04FF480321A671867074D084CA4
:102380006968084B084821F4007100226960214601
:10239000226003F1C0040BE00038024000700040EE
:1023A000700B0020603D00081060024053F80C0CD8
:1023B00002600C33A3424A6001F10801F6D1CF4C10
:1023C000CF48D04BD04F4FF0FF32A2606021E26087
:1023D000402582608024C2604FF480704FF4007208
:1023E00083F80613C3F880511D6083F80713C3F800
:1023F00080411C6083F808134FF48064C3F88001A7
:10240000186083F80913C3F880211A604FF40002A2
:1024100083F80A13C3F880411C6083F81713C3F8CC
:1024200080211A6083F828133A46C3F884013918CA
:1024300058600023C2E90022C2E9023310329142FF
:10244000F8D1B24EDFF804E3B14DB24CB248B34A12
:10245000736131464FF0100C41F804EBC6F838C0F8
:10246000F46406F1740C06F15404706706F164001C
:10247000C6E90844C6E91100DFF8D492DFF8D48237
:10248000C6F840C006F10C0E716006F1300C012157
:10249000B461F06105F10C04F063A1486B61C6E919
:1024A0000A36C6E903EEC6E90CCCC5E90133C5E935
:1024B0000833C5E90344C5F81C90C5F8288031727B
:1024C00029703665E862106C964CDFF88C92646077
:1024D00040F008001064106EA36040F00800106621
:1024E000126ED9F808E0904A24614EF0080EC9F83F
:1024F00008E0DFF868C28348DFF8648242F20F7EAA
:10250000C2F828E04FF0FF3EC2F82CE0646193610E
:10251000C4F824E05363A362D360CCF80430536062
:10252000CCF8083051611160802280F832234FF4DA
:10253000802104F11C02C0F88411E26141607B49F2
:10254000CCF800107A487B4922627B4AC8F8000028
:102550000CF10C09C8F804100020002102F1100849
:102560002460CCF80C90CDE91201C2E900221420BD
:1025700002F12801CCF81090CCF81430CDE90F33DB
:10258000CDF838E04FF01C0C02F1240E6367119374
:1025900093605361D36202F13C090423C2F81080B6
:1025A000906102F1400802F1440091626349C2F86F
:1025B00024E0C2E90F98C2F830C05064D36153637D
:1025C0009846116291630EA8FEF7DAF80EA8FEF79E
:1025D000AFF8B8F10108F6D1594AD4F814C00E9BEF
:1025E00063678020012102F12C03DFF87891A0635A
:1025F00002F1280EE066C4E91988C4E9104C84F899
:10260000518084F85210C4F848902020CCF8102053
:10261000C4E90522C4E916E384F85010C4F84C80DC
:10262000236680F3118862B6464BDFF83CC1D3F8CD
:102630000CE04FF6FF090EEA090E09F160494EEA77
:102640000C0CA9F60F39C3F80CC0D9F80CC0DFF890
:102650001CE14CF0807CC9F80CC0DEF800C04FF0E3
:1026600010094CEA010CCEF800C083F81F9083F8E3
:10267000220088F3118862B680F31188324B6069BA
:10268000C3F89810C3E9328183F8B210DFF8E0C0D4
:10269000DFF8E090DFF8E0E0C3F86CC003F16C0114
:1026A000C3F89C1003F1900C0221A3F8B010C3F8FA
:1026B000A400C3F8C480C3F88C90C3F8A8E0C3F8A2
:1026C0007080C3F8A040C3F8AC30C0F810C0A16956
:1026D000C3F8B480D1F808E0C4F814C003F1BC001A
:1026E00003F1B809C3E92E90C3F8C000BEF1000F92
:1026F00000F01E8383F8B080303A3FE00060024073
:102700000064024000E100E0AC0800200008002066
:102710007C08002071060008004400400038024098
:1027200046000100AC090020000C00403106000802
:10273000500D002000800020240A0020010700081E
:10274000DC09002000ED00E0700A0020C03F000816
:102750000038004016000100002004E0540B002067
:10276000480B0020143E00080003FA05001000E0AA
:10277000B1080008F1020008083C000812689168DE
:102780000029FBD1C3F890205168C3F89410C1F818
:1027900000C0C2F804C0002383F31188202383F310
:1027A0001188337A012B11D19E4B9F4A196C41F449
:1027B00000311964196E41F4003119661B6EC02195
:1027C000402382F82613C2F884315360736F974A0E
:1027D000934200F0288302F5806293420CBF4FF4CD
:1027E00059724FF4D97240204FF0010B42F22C1174
:1027F0004FF000099A604FF0020A1861FF22C3F8F7
:1028000014B0D960C3F8009019685B6886F8782026
:1028100086F808A089F311888548864C864EFFF714
:1028200047F98648FFF744F94A4651468448FEF77F
:10283000BFF820464A465146FEF7BAF84A464FF4DA
:102840000051FEF7B5F84A464FF48041FEF7B0F864
:102850005A4651467A48FEF7ABF820465A4651464A
:10286000FEF7A6F85A464FF40051FEF7A1F85A4673
:102870004FF48041FEF79CF84FF4804B20224FF438
:102880000041FEF795F8A4F81AA04FF47A70A4F866
:102890001AB0FEF72DFAA4F818A06420FEF728FA63
:1028A000A4F818B06420FEF723FA6648CDF83490F7
:1028B000CDE90999CDE90B990896FFF7F9F8624A35
:1028C000624B82F800905E481E6040F29A2204211A
:1028D000FEF76EF85A4840F29A220821FEF768F88F
:1028E000204640F29A224FF48061FEF761F82023DF
:1028F00083F311882B78564A6A60012B00F05682C8
:102900004C21D5E90A0320F4F04023F4F043C5E953
:102910000A031378A86A002B00F01F82EB6A40F4C8
:10292000847043F48473C5E90A03EB69528A18681A
:1029300042F0070241F4417120F040001860196034
:102940005A601A68022142F040021A60002629707B
:1029500086F31188FEF76CFC3E4C01463E48FFF7BB
:10296000A7F80EA94EF624000E962670FEF708FC76
:10297000002800F066822378002B00F0468206AE25
:1029800031464FF48050FEF7FBFB01E0FEF7B0F953
:102990000EA941F21400FEF7F3FB0E9B002B4FF043
:1029A0000A00F3DA2D480EA9FEF7EAFB0E9BDA07C0
:1029B0001BD40A20FEF79CF90EA94FF00C10FEF76D
:1029C000DFFB274D0E9B44F620640AE0FEF790F9EA
:1029D0000EA94FF00C10FEF7D3FB013C0E9B00F04C
:1029E0002982AB424FF00A00F0D11E4941F28C001F
:1029F000FEF78EFDFEF71CFCC0F30B03B3F5687FFA
:102A0000C0F014820220FEF78BFD17494FF00C1026
:102A1000FEF77EFD154B41F28C02039244F62064D2
:102A2000049330E00038024000E100E00010014073
:102A3000103C000800040240711F00081C3C000804
:102A400000080240343C0008220C0020F40B002057
:102A5000AC3F0008210C00204C3C0008BC070200E1
:102A60009ED0AD1054135413612F52EF36265302EB
:102A7000FEF73EF903980EA9FEF782FB013CDDF854
:102A8000388000F0D781049B43454FF01400EFD10C
:102A9000049AB64B9A4200F0E08100230EA941F25D
:102AA00008400E93FEF7B4FB0546002840F0C481B1
:102AB0000E9941F2084041F480710E91FEF718FD25
:102AC0000546002840F0B8810EA94FF4D050FEF71B
:102AD0009FFB0546002840F0AF810E994FF4D0507F
:102AE00041F480310E91FEF703FD0546002840F0C9
:102AF000A3819F4C234604F1280203F8015B934213
:102B0000FBD1202080F31188FDF762FD85F3118849
:102B100080F31188974BC7E93E3585F31188CDE9DD
:102B20000555954B954AE3617560E2600EAB002256
:102B300003F8012B18A98B42FAD1914805A9FEF799
:102B400067FB0546002840F0CA810598002800F080
:102B5000BD8140F4403008223146FEF7E9FA0546CF
:102B6000002840F0BC81BDF81C000590002800F052
:102B7000AD8140F4403028220EA9FEF7D9FA05466F
:102B8000002840F0AC819DF841009DF83FE09DF8A1
:102B90003E309DF83D209DF840C09DF83C1000F06F
:102BA0000F0040EA0E2003F00F074FEA021E4FEA23
:102BB0000C1C47EA01275FFA8EFE5FFA8CFC57EA8D
:102BC0000E0740EA0C0000F08781002800F08481A5
:102BD00041F2543C604500F2768141F25330874225
:102BE00098BF6FF00C05BDF8580000906548FEF7DF
:102BF0005FFF0DF14E020DF142016348FEF758FFF1
:102C00009DF841309DF840209DF83F105F48FEF749
:102C10004FFF052213215E480423FEF749FF5D4A5A
:102C20005D495E48FEF744FF002D40F005815C4899
:102C30005C4FFEF73DFFFEF7EBFDE378002BFCD089
:102C4000E378013BDBB2E3704FF4004805A941F2A1
:102C50007000FEF7DDFA0028F8D10599CB07F5D50D
:102C600021F00101A7F81A8041F270000591FEF7EA
:102C70003FFC03460028E9D1059D0122C5F38B05E1
:102C8000A270002DE2D00EA941F284000E93FEF74F
:102C9000BFFA002840F00B810E9860600422314694
:102CA000A560FEF745FABDF81A309BB2ADF81A30B0
:102CB000002840F0FC80BDF81A309BB29D4206D03F
:102CC000BDF81A309BB2ED1A042D00F3F0809DF888
:102CD0001830012B00F0E2809DF81830022B00F034
:102CE000D4809DF81830042B00F0C6809DF8183071
:102CF000062B00F0B8809DF81830072B00F0DA8022
:102D00009DF81830052BA1D1636A4BB1BDF81A109C
:102D10000E9A636A9DF81900083989B208329847FB
:102D2000A378002B89D0FEF79BFD002885D08DE786
:102D300081F82080303A126890680028FBD15068F2
:102D4000C1E90020016051600122174883F8B020DA
:102D5000C4F818C0FDF7C4FA1DE5EB6A20F48470CE
:102D600023F48473C5E90A03DFE500BF3626530266
:102D7000F80B00202106000811060008F1180008D1
:102D800008000C005C3C0008843C0008A03C0008E3
:102D9000C43C0008DC3C0008E83C0008F43C0008A7
:102DA000343D000800040240000B00204F4903207E
:102DB000FDF7B6FB4E4928620420FDF7B1FB4D4BF1
:102DC000296A1A6C0E68D0F800C042EA0B021A6435
:102DD0001C6E6A686862E869118A44EA0B041C6622
:102DE0000C301B6EB060CCF8080008057FF589AD8B
:102DF000D5E90A0320F4F04023F4F04340F42050D6
:102E000043F42053C5E90A0383E50E9B23F07C03BA
:102E100043F050014EF624000E91FEF729FBD0B18D
:102E200001232370ABE54FF45972DCE40020FEF778
:102E300077FBEAE56FF004052F482946FEF738FED8
:102E4000FEE701230EA94EF624002370FEF798F941
:102E500000287FF490AD06AE9AE5002141F28C0087
:102E6000FEF756FB19E6236A002B3FF459AFBDF875
:102E70001A100E9A236A4DE76369002B3FF450AF96
:102E8000BDF81A100E9A636944E72369002B3FF4DA
:102E900047AFBDF81A100E9A23693BE7E368002B91
:102EA0003FF43EAFBDF81A100E9AE36832E7FDF723
:102EB000E7FBCBE6A369002B3FF432AFBDF81A1055
:102EC0000E9AA36926E76FF00C058CE69DF83C107E
:102ED0009DF83E309DF83D206FF00B0583E69DF890
:102EE0003C109DF83E309DF83D207CE6E10800084E
:102EF000C1080008003802400C3D00080000000036
:102F0000EFF30983203383F30988002383F31188C7
:102F1000704700BF0000000000000000000000003B
:102F200038B52022034682F311880F4A9469A06ABB
:102F3000636204F12805A84206D00368A362FDF786
:102F40005FFCA06AA842F8D194F822303BB994F80B
:102F500021309B0703D1D4E9043213615A61BDE8E3
:102F600038400F20FDF794BDAC09002000000000A0
:102F70000D4A10689169036830B401245A60002535
:102F800080F820408C681360906181F8205000E048
:102F90001B689A689442FBD35A6830BCC1E900327E
:102FA00011605960FDF79CB9AC09002000000000D9
:102FB000584B59481A69594942F08702F0B41A61CE
:102FC0001A69574D574E584C22F087021A611A69F8
:102FD0001A6B42F087021A631A6D42F087021A6573
:102FE0006FF48A670022D3F850C06A604FF6DF7C26
:102FF000AF604FF4EE47EE60C5F814C04FF42A26D8
:103000002F624A4F6E622F604FF0FF364FF05537F8
:1030100062604FF6FF75A660E760802765612262F7
:1030200062622760424F4260A4F5CA348660C7607E
:1030300045610262426202603E484A608E60C8603A
:103040003D4E4D614FF440400A624A620A601E6480
:1030500020601A6842F001021A601A689507FCD5D0
:1030600099682C4A21F003019960916811F00C01D4
:10307000FBD11068274B00F0F90010609160516F90
:1030800041F0010151675A6F9407FCD52B4A5A60F1
:103090001A682B4942F080721A604B685804FCD5BC
:1030A0001C4B1A689201FCD526499960264A0320D8
:1030B0000021C3F88C00C3F894101268234B9A4285
:1030C0001ED0234B40F203721A60214A136803F0AA
:1030D0000F03032BFAD10F4B9A6842F002029A6059
:1030E0009A6802F00C02082AFAD15A6C42F4804223
:1030F0005A645A6E42F480425A66F0BC5B6E704766
:10310000144A154B12689A42DBD1114B40F203125C
:103110001A60DAE70038024000080240001C024052
:10312000000002400551156400040240A004802AFA
:1031300055555501505555550004001010320008E2
:103140000070004000108838002004E01164002066
:10315000003C024000ED00E041C20F4100000000D1
:103160002DE9F047664C666FF7683368DA059DB263
:103170007BD4202383F3118815F02F0F4DD0DFF877
:1031800088814FF0000908E0AD06D6F804A01DD4F0
:10319000336813F02F0F9DB23FD02B07F4D015F0FA
:1031A000080F0CBF00208020E90748BF40F0200036
:1031B000AA0748BF40F040006B0748BF40F480704A
:1031C000FDF736FBAD06D6F804A0E1D5636994F8A7
:1031D0007850002B3AD0D4E9083293423DD062694E
:1031E000591C013205EA0A05626121621D70D4E9A9
:1031F00007329A4201D3A3692362E0684045C7D0F1
:103200000368E360C3F80480C0F82490FDF7F8FA7F
:10321000336813F02F0F9DB2BFD1002383F31188C1
:10322000380601D529062ED47A060BD56B0609D5AA
:10323000202383F31188D4E911239A4249D0002333
:1032400083F31188BDE8F047FDF732BA0420FDF79B
:10325000EFFAD4E908329342C1D16269002ABED0A4
:103260004FF48060FDF7E4FA92E7202383F311889E
:103270004FF40070FDF7DCFA6FF4807333600023C5
:1032800083F3118875E7202383F31188D4E9112390
:103290009A4229D0A26B216C581C0132A263A0640F
:1032A000884293F8008001D3E36BA364206B154B35
:1032B000984206D002682263002153604162FDF704
:1032C0009FFAC6F80480002383F311887A06B9D5E3
:1032D000ACE7A36B002BB2D01020FDF7A9FA4FF694
:1032E000BF731F40F760AAE7A26B002AD2D0082064
:1032F000FDF79EFA4FF67F733B40F360E3E700BFB4
:1033000000080020300800200C0800200000000009
:103310002DE9F843284C2369E2681340DAB2D2431E
:103320009B07226103D4BDE8F843FDF7C1B9202310
:1033300083F31188214D676AEB69AA6A9968BE1AFE
:10334000B14205F11C0998BF4FF0000820D8202792
:1033500000E0AA6A18680A444845AA62A6EB01067A
:10336000DA68C0F80490E861C3F80C8008BFC4F8BC
:103370000C8088F311881869904787F31188EB69EE
:1033800099688E42E5D2676AAA6ABE1A8E42DED278
:103390004B450AD09968AF62C91B0A4406499A6036
:1033A000022A2CBFBF1802374F63002383F3118812
:1033B000BDE8F843FDF77CB9000C0040AC090020E3
:1033C000084B09485968C26F890D01F03D0110B5DD
:1033D0008C05DC6012B1D0F880009047BDE8104049
:1033E000FDF766B900640240700B00200000000089
:1033F000084B09485968426F090C01F03D0110B5AE
:103400000C04DC600AB1806F9047BDE81040FDF706
:103410004FB900BF00640240700B002000000000A4
:10342000084B09485968C26E890901F03D0110B581
:103430008C01DC600AB1006F9047BDE81040FDF7D9
:1034400037B900BF00640240700B0020000000008C
:1034500008B5074B07485968426E01F03D01D96035
:103460000AB1806E9047BDE80840FDF721B900BF62
:1034700000640240700B002000000000000000000B
:10348000084B09481968C26D890D01F03D0110B55E
:103490008C059C600AB1006E9047BDE81040FDF7B6
:1034A00007B900BF00640240700B0020000000005C
:1034B000084B09481968426D090C01F03D0110B52F
:1034C0000C049C600AB1806D9047BDE81040FDF788
:1034D000EFB800BF00640240700B00200000000045
:1034E000084B09481968C26C890901F03D0110B503
:1034F0008C019C600AB1006D9047BDE81040FDF75B
:10350000D7B800BF00640240700B0020000000002C
:1035100008B5074B07481968426C01F03D019960F6
:103520000AB1806C9047BDE80840FDF7C1B800BF04
:1035300000640240700B002000000000000000004A
:10354000084B09485968C26B890D01F03D0110B55F
:103550008C05DC600AB1006C9047BDE81040FDF7B7
:10356000A7B800BF00600240700B00200000000000
:10357000084B09485968426B090C01F03D0110B530
:103580000C04DC600AB1806B9047BDE81040FDF789
:103590008FB800BF00600240700B002000000000E8
:1035A000084B09485968C26A890901F03D0110B504
:1035B0008C01DC600AB1006B9047BDE81040FDF75C
:1035C00077B800BF00600240700B002000000000D0
:1035D00008B5074B07485968426A01F03D01D960B8
:1035E0000AB1806A9047BDE80840FDF761B800BFA6
:1035F00000600240700B002000000000000000008E
:10360000084B09481968C269890D01F03D0110B5E0
:103610008C059C600AB1006A9047BDE81040FDF738
:1036200047B800BF00600240700B0020000000009F
:10363000084B094819684269090C01F03D0110B5B1
:103640000C049C600AB180699047BDE81040FDF70A
:103650002FB800BF00600240700B00200000000087
:10366000084B09481968C268890901F03D0110B585
:103670008C019C600AB100699047BDE81040FDF7DD
:1036800017B800BF00600240700B0020000000006F
:1036900008B5074B07481968426801F03D01996079
:1036A0000AB180689047BDE80840FDF701B800BF47
:1036B00000600240700B00200000000000000000CD
:1036C0003B4B10B55A691C68144004F47C425A61A3
:1036D00062050FD5374AD2F8A83013B1D2F8AC0042
:1036E0009847202383F311883348FDF7D1F800234E
:1036F00083F3118823050FD52E4AD2F8B83013B1C1
:10370000D2F8BC009847202383F311882B48FDF79B
:10371000BFF8002383F31188E0040FD5254AD2F8BF
:10372000C83013B1D2F8CC009847202383F3118816
:103730002348FDF7ADF8002383F31188A1040FD5CA
:103740001C4AD2F8D83013B1D2F8DC0098472023B5
:1037500083F311881B48FDF79BF8002383F311883E
:1037600062040FD5134AD2F8E83013B1D2F8EC0056
:103770009847202383F311881348FDF789F8002325
:1037800083F3118823040FD50A4AD2F8F83013B115
:10379000D2F8FC009847202383F311880B48FDF7EB
:1037A00077F8002383F31188BDE81040FCF780BF51
:1037B000003C0140AC0800204C0900205C090020BE
:1037C0006C0900207C0900208C0900209C09002045
:1037D0002F4B10B55A691C68144004F478725A6172
:1037E000A3060DD52B4A936D0BB1D06D98472023BE
:1037F00083F311882848FDF74BF8002383F31188E1
:1038000060060DD5234A936E0BB1D06E98472023E6
:1038100083F311882148FDF73BF8002383F31188D7
:1038200021060DD51B4A936F0BB1D06F984720230B
:1038300083F311881A48FDF72BF8002383F31188CE
:10384000E2050FD5134AD2F8883013B1D2F88C00B4
:103850009847202383F311881248FDF719F80023B5
:1038600083F31188A3050FD50A4AD2F8983013B113
:10387000D2F89C009847202383F311880A48FDF76B
:1038800007F8002383F31188BDE81040FCF710BF50
:10389000003C0140AC080020FC0800200C0900207E
:1038A0001C0900202C0900203C0900200000000019
:1038B0000D4A08B5516913680B4003F010035361BA
:1038C0006BB10A4A936C0BB1D06C9847202383F3F9
:1038D00011880748FCF7DCFF002383F31188BDE85B
:1038E0000840FCF7E5BE00BF003C0140AC080020EA
:1038F000EC080020000000000000000000000000B4
:103900000D4A08B5516913680B4003F00803536171
:103910006BB10A4A936B0BB1D06B9847202383F3AA
:1039200011880748FCF7B4FF002383F31188BDE832
:103930000840FCF7BDBE00BF003C0140AC080020C1
:10394000DC08002000000000000000000000000073
:103950000D4A08B5516913680B4003F00403536125
:103960006BB10A4A936A0BB1D06A9847202383F35C
:1039700011880748FCF78CFF002383F31188BDE80A
:103980000840FCF795BE00BF003C0140AC08002099
:10399000CC08002000000000000000000000000033
:1039A0000D4A08B5516913680B4003F002035361D7
:1039B0006BB10A4A93690BB1D0699847202383F30E
:1039C00011880748FCF764FF002383F31188BDE8E2
:1039D0000840FCF76DBE00BF003C0140AC08002071
:1039E000BC080020000000000000000000000000F3
:1039F0000D4A08B5516913680B4003F00103536188
:103A00006BB10A4A93680BB1D0689847202383F3BF
:103A100011880648FCF73CFF002383F31188BDE8BA
:103A20000840FCF745BE00BF003C0140AC08002048
:103A3000F0B4144F144D1548154B164907F1700C8E
:103A40000026984211D904391A4651F8044F42F819
:103A5000044B9042F9D8421ED21A22F003020432DB
:103A600013449D4203D943F8046B9D42FBD867453C
:103A700005D0D7E90413D7E906051037E1E7F0BC14
:103A8000704700BF2C3F0008500D0020500D002053
:103A9000500D0020E83F000800000000000000007A
:103AA000FEE700BF00000000000000000000000072
:103AB000704700BF00000000000000000000000090
:103AC000704700BFF0B4860746D0541E002A3CD091
:103AD000CAB2034601E0013C37D303F8012B9D072E
:103AE000F9D1032C2AD9CDB245EA05250F2C45EA98
:103AF000054534D9A4F1100222F00F0C03F1200780
:103B00001609674403F1100242E9045542E90255DF
:103B10001032BA42F8D1721C14F00C0F03EB0212EF
:103B200004F00F0613D0331F23F0030304331344B0
:103B300042F8045B9342FBD106F003042CB1CAB2F5
:103B40001C4403F8012B9C42FBD1F0BC7047344667
:103B50001346002CF3D1F8E714460346C1E71A4692
:043B60002646E0E72E
:103B6400444D41206661696C75726500286E756C00
:103B74006C2900005B25645D20535349443A257346
:103B84000D0A00004449415300000000466F756E61
:103B940064202573200D0A00646961737061737376
:103BA4000000000063616E206E6F742066696E64AD
:103BB4002041502025730D0A0000000057692D464E
:103BC4006920646973636F6E6E65637465640D0A5E
:103BD4000000000057692D466920636F6E6E6563AF
:103BE4007465640D0A00000057692D466920495028
:103BF4002069732025752E25752E25752E25750DA6
:103C04000A00000069646C65000000004269736D7D
:103C1400696C6C61680A0000696E697469616C6939
:103C24007A696E67206273705F696E69740A000056
:103C3400696E697469616C697A696E67207769660F
:103C4400695F696E69740A00436869702049442099
:103C5400256C780A000000004669726D7761726510
:103C6400207665722020203A2025752E25752E2574
:103C7400752053766E7265762025750A0000000063
:103C84004669726D77617265204275696C6420259E
:103C9400732054696D652025730A00004669726DAE
:103CA40077617265204D696E206472697665722051
:103CB400766572203A2025752E25752E25750A0005
:103CC400447269766572207665723A2025752E25D0
:103CD400752E25750A00000031393A34363A3032EF
:103CE400000000004E6F7620203120323032300048
:103CF400447269766572206275696C7420617420FF
:103D040025730925730A00006D61696E3A206D32CE
:103D14006D5F776966695F696E69742063616C6C55
:103D2400206572726F7221282564290D0A00000033
:103D3400696E697469616C697A696E67207769660E
:103D4400695F726571756573745F7363616E0A0090
:103D540010600240086002400000000B286002402E
:103D6400086002400006010C406002400860024006
:103D74000010020D58600240086002400016030E55
:103D8400706002400C6002400000040F8860024032
:103D94000C60024000060510A06002400C60024066
:103DA40000100611B86002400C6002400016072F94
:103DB400106402400864024000000838286402408D
:103DC4000864024000060939406402400864024065
:103DD40000100A3A586402400864024000160B3B83
:103DE400706402400C64024000000C3C8864024091
:103DF4000C64024000060D44A06402400C640240BE
:103E040000100E45B86402400C64024000160F46D0
:103E14006D61696E00164130040444080C101418D6
:103E24001C202122000000000009121B242D363F13
:103E340048415A536C657E7719100B023D342F2686
:103E44005158434A757C676E323B2029161F040D76
:103E54007A7368615E574C452B2239300F061D1466
:103E6400636A7178474E555C646D767F4049525B56
:103E74002C253E3708011A137D746F6659504B4246
:103E8400353C272E1118030A565F444D727B606936
:103E94001E170C053A3328214F465D546B62797026
:103EA400070E151C232A31384148535A656C777E16
:103EB40009001B122D243F3658514A437C756E6706
:103EC4001019020B343D262F737A6168575E454CF6
:103ED4003B3229201F160D046A6378714E475C55E6
:103EE400222B3039060F141D252C373E0108131AD6
:103EF4006D647F7649405B523C352E2718110A03C6
:103F0400747D666F5059424B171E050C333A2128B5
:103F14005F564D447B7269600E071C152A233831A5
:103F2400464F545D626B7079E83F0008500D0020E5
:103F3400500D0020500D0020E83F00080000000054
:103F44000000000000000000E83F0008000000003E
:103F54000000000000000000E83F0008000000002E
:103F64000000000000000000E83F0008000000001E
:103F74000000000000000000E83F0008000000000E
:103F84000000000000000000E83F000800000000FE
:103F94000000000000000000E83F000800000000EE
:103FA400000000000000000000000000000000000D
:103FB40000080240010000004C0000000000000066
:103FC4000122000801230008610C0008E10C00082C
:103FD400510C0008D10C0008F1210008F12200085E
:043FE400810A000846
:04000005080002D914
:00000001FF
